:020000040800F2
:1080000000800020EDF60008E1C50008E5C5000885
:10801000E9C50008EDC50008F1C500080000000032
:10802000000000000000000000000000F5C500088E
:10803000F9C5000800000000FDC5000801C60008E1
:108040003DF700083DF700083DF700083DF7000840
:108050003DF700083DF700083DF700083DF7000830
:108060003DF700083DF700083DF700083DF7000820
:108070003DF700083DF700083DF7000869E00008FB
:108080003DF700083DF700083DF700083DF7000800
:108090003DF700083DF700083DF700083DF70008F0
:1080A0003DF700083DF700083DF700083DF70008E0
:1080B00019E100083DF700083DF700083DF700080A
:1080C0003DF700083DF700083DF700083DF70008C0
:1080D0003DF700083DF700083DF700083DF70008B0
:1080E0003DF700083DF700083DF700083DF70008A0
:1080F0003DF700083DF70008000000000000000008
:1081000000000000000000003DF700083DF70008F7
:1081100000000000000000003DF700083DF70008E7
:108120003DF700083DF700083DF700083DF700085F
:108130003DF700083DF700083DF700083DF700084F
:108140003DF70008000000000000000000000000F3
:10815000000000000000000000000000000000001F
:1081600000000000000000003DF700083DF7000897
:108170003DF70008000000003DF700080000000087
:108180003DF70008000000000000000000000000B3
:1081900010B5054C237833B9044B13B10448AFF341
:1081A00000800123237010BD006A00200000000041
:1081B0009081000808B5064B1BB106480649AFF38D
:1081C00000800648036813B1054B03B1984708BD0A
:1081D0000000000090810008046A0020006A00206E
:1081E0000000000010B5044640F8281B06F086F990
:1081F000201D05F07BFC002323656365A365E36513
:1082000023666366A366E36623676367A367E36722
:10821000C4F88030C4F88430C4F88830C4F88C3096
:10822000C4F89030C4F89430E36410BDC38D9FED62
:10823000C47A07EE903AFAEEC87A2DE9F041F4EEEE
:10824000C77AF1EE10FA024640F13081DFEDBD2A27
:1082500027EEA22A506892ED166ADFEDBB3AD2ED06
:10826000145A9FEDBA4A9FEDBA0A1568DFEDB96A54
:10827000D5ED084A95ED097ADFEDB77A9FEDB75A4B
:1082800002EB4004B0EE461AB4F91C6003EE106A2B
:10829000F8EEC30A32EE652A90EEA31AE2EE005A17
:1082A000A1EE046AE5EEA67AA4EE867AC2ED145A2F
:1082B00077EE272A82ED166AF4EEC52AF1EE10FA5F
:1082C00008D4F4EE662AF1EE10FACCBFB0EE665A8E
:1082D000B0EE625A92ED130A9FED9C6A9368178F75
:1082E000D5ED0A4AD5ED0B7A9FED9D7A9FED983A30
:1082F000DFED953A9FED9B4ADFED985A75EE400A07
:1083000002EB4308A0EE860AB8F91C0006EE907A4C
:1083100082ED130A81ED010A92ED181AD2ED191AB5
:10832000B8EEE62AF0EE412AD2EE072A05EE100A50
:10833000B8EEC50AB0EE616AA2EE831A90EE236A27
:10834000F6EE006AE6EE041A31EE667AE4EEA17A01
:1083500027EE073AB2EE004A67EE033A82ED181AAA
:1083600063EE844AC2ED191A64EEA77AF4EEE57A58
:10837000F1EE10FA08D4DFED775AF4EE657AF1EEFB
:1083800010FAD8BFF0EE675A8C7EC1ED005A4CB996
:10839000D2ED180AB0EE002ABFEE001AA0EE821A43
:1083A00081ED001A02F12808101D0831464600F13F
:1083B000040E13460224B71A4744DFED691A37F852
:1083C00016CC37F8207C02EE90CA05EE107AB8EE93
:1083D000E20AB8EEC56A022C60EE210A66EE217A46
:1083E00077D0052C00F08D805EF8047FD3ED1B5A0A
:1083F00093ED1C1ADFED564ADFED536A93ED1A6ACE
:10840000DFED593A95ED0C3A95ED0D7A9FED574A0F
:1084100002EB470C70EEE50ABCF91C7002EE107A14
:10842000F8EEC21AF0EE412AE0EEA45AD1EEA62AE6
:10843000B6EE000AA2EEA31A75EEC06A77EEC67A0F
:1084400066EEA63AA7EEA46AA3EE017A66EEA34A08
:10845000B2EE003A64EE830A36EE042A83ED1C1A6B
:10846000A0EE872AC3ED1B5AB4EEC42AF1EE10FA2F
:1084700083ED1A6A08D4B7EE004AB4EE442AF1EE4E
:1084800010FAD8BFB0EE424A0134062CA1EC014AE2
:1084900006F1020605F1080503F10C038BD105F086
:1084A00025FC4046BDE8F04106F0D2B89FED300A09
:1084B000F4EEC07AF1EE10FA08DDDFED2E0A9FED42
:1084C000211A77EEE01A21EE812AC3E6B6EE002AE1
:1084D000C0E6F2EE005A27EEA52A274FBDEEC21ADB
:1084E00011EE10CA07EB8C07D7ED007AD7ED012A01
:1084F000F8EEC11A32EEE70A32EE615AE5EE007A82
:1085000072E7DFED0F6AF4EEE67AF1EE10FA04D5C9
:10851000DFED0C4A67EEA47A66E79FED157AF4EE7C
:10852000C77AF1EE10FA08DD9FED123ADFED053A59
:1085300037EEC34A64EE237A56E7F6EE007A53E745
:1085400048E1FA3EBC9C823F00000038CDCC4C3E56
:10855000A69B443B0000C042000040C20000C0C2D5
:10856000000080379A99993ECDCCCC3D00000000A8
:108570005C8F023F0AD7A33CC46300202DE9F001C1
:10858000059C41604FF0000800210461C0F8208084
:108590008260C360C1618182C18201834183BDE881
:1085A000F0017047014B186005F076BD1C6A002091
:1085B000F0B484B0002A00F0BD80604E604DD6ED6E
:1085C000007A2F1D00235EE0B9EE001AF3EE001AC8
:1085D000B0EE415AA7EEA15A8DED025A848A8DED74
:1085E000031A7CB944689DED001AD4ED002A94ED7D
:1085F000013AA1EE223AFDEEC33A13EE90CA8CF393
:108600001004A4B28C85C48A7CB944689DED014AEB
:1086100094ED020A94ED037AA4EE007AFDEEC70A07
:1086200010EE90CA8CF31004A4B28C87048B7CB932
:1086300044689DED026AD4ED046AD4ED055AE6EE75
:10864000265AFDEEE54A14EE90CA8CF31004A4B24B
:10865000A1F84C40448B7CB94468DDED031A94EDDD
:10866000065A94ED072AA1EE852ABDEEC21A11EE34
:1086700010CA8CF31004A4B201339342A1F85C40F9
:1086800001F1020156D09FED2F7A9FED2F6A77EE10
:10869000877AB7EE000AF4EEC07AF1EE10FAA8BFBE
:1086A00037EEC00AB1EE001AA8BFF0EE407A67EECE
:1086B000860AFAEE005AFDEEE06AB0EE413A16EE96
:1086C000904A4FEA840405EB040C3C44DCED001AAC
:1086D00094ED005AB8BFC6ED007AF8EEE64A75EEA2
:1086E000612A30EEE42AA7EEA53AE2EE221AB6EEAF
:1086F000004A21EE817AF4EEC47AA8BF86ED000A22
:10870000F1EE10FA8DED013A8DED007A3FF55CAF98
:10871000B7EE000AF9EE006A70EE670AB3EE006A7F
:10872000F0EE665AE0EE865A48BFB0EE661ACDED1E
:10873000025A53E704B0F0BC704700BF206A002023
:108740001008010817B7D13A00008044024B0A46CE
:1087500001461868FFF72CBF1C6A002038B5044694
:1087600099B94568C06895ED003AD5ED017AE0EE1B
:10877000037A0125BDEEE76A16EE10EA8EF31003C8
:10878000A38205F079FD284638BD012904D00229CD
:1087900049D00125284638BD4368826893ED000A18
:1087A00093ED017ADFED387AD2ED1C2A92ED191A99
:1087B00093ED0A5AD3ED0C5A92ED1F3AD2ED223ABC
:1087C00092ED254A93ED0E6AD3ED106AD3ED124A6D
:1087D000906D2062A0EE807A0D462846F0EE671A72
:1087E000B0EE672AE1EE451AA2EEE52AB0EE675A2E
:1087F000F0EE672ABDEEC77AA3EE465AE3EEE62A0C
:10880000E4EE647A17EE101A81F3100CC3ED0B1A24
:1088100083ED0D2A83ED0F5AC3ED112AC3ED137AB0
:10882000A4F814C038BD836890ED086AD3ED167AB9
:10883000DFED166A30EEC00AB2EE087A37EEC61ADD
:1088400060EE071A81EE812AB4EEE62AF1EE10FA04
:1088500006DDDFED0F2AB4EEE22AF1EE10FA05D4C0
:108860000025E06805F0C0FC284638BD60EE870AA8
:108870004168E7EEC20A0846012581ED082AC1EDEC
:10888000090A00F0D3FCECE700000000000082C2FF
:1088900000005CC238B54B115D1E01F01F02062DB1
:1088A00036D8DFE805F0485B66747E04840011F07A
:1088B00003014FEAA20500F09480012900F09E8098
:1088C000C2694368140C06EE904A1FFA82FCB8EEA7
:1088D000660A01EE10CAB4EE007A60EE470AF8EEBE
:1088E000C17A00EB450E77EEA01A03EBC500BDEE92
:1088F000E12AC0ED000A12EE105A85F31001C0ED16
:10890000017A1846AEF8141000F090FC002038BD33
:10891000052A54D88068DFED3D6A02EB420400EB83
:10892000840C9CED140A20EE267AFCEEC70A10EEA9
:10893000905AE8B238BD8168DFED352A9FED353AAF
:1089400002EB420C01EB8C02D2ED163AA3EEA23AF6
:10895000BCEEC34A14EE100AC0B238BD012A47D992
:10896000911E0069CAB2845CD4F1010038BF0020B6
:1089700038BD00F1160C00F1180400F11A050023AF
:108980008382ACF80030184623802B8038BD01F07C
:108990000301B8EE000AF1EE000AFFF7DFFE002047
:1089A00038BDC0680244D1794A42D0B238BDC369EB
:1089B00001F00F0141EA0312C261002038BD941F8B
:1089C0008568DFED124A04EB440305EB830191ED6A
:1089D000155A65EE245ABCEEE56A16EE102AD0B29E
:1089E00038BD00EB450449F6F1750846A58238BD4F
:1089F000C5682A44137903F0010038BD00EB450235
:108A000044F26B139382002038BD00BF0000804306
:108A10000000FE42000000432DE9F04703460446F3
:108A20004FF08E41CC482060616043F8080F1A4631
:108A30005960274642F8080F04F15005516004F1CF
:108A4000200647F8180FC6EB050804F1280C7960DA
:108A50000020A8F10809C1492162654582B0C9F327
:108A6000C20260626DD0002A44D0012A38D0022AA6
:108A70002DD0032A23D0042A19D0052A0FD0062A84
:108A800005D0CCF80010CCF8040004F1300C002024
:108A9000B24FCCF80400CCF800700CF1080C0026A2
:108AA000AE49CCF80460CCF800100CF1080C0020A2
:108AB000AA4ACCF80400CCF800200CF1080C0027DE
:108AC000A64ECCF80470CCF800600CF1080C4FF006
:108AD000000AA249CCF804A0CCF800100CF1080C54
:108AE00000209E4ACCF80400CCF800200CF1080CC1
:108AF000654526D00023994FCCF80430CCF800709F
:108B0000CCF80870CCF80C30CCF81070CCF81430DD
:108B1000CCF83C30CCF81870CCF81C30CCF8207075
:108B2000CCF82430CCF82870CCF82C30CCF830704D
:108B3000CCF83430CCF838700CF1400C6545184650
:108B4000D8D102254FF0010E0022854B84F86150E8
:108B500084F860E084F862201E688249DFF844826D
:108B6000DFF84492804FE06204F160058E42A46613
:108B7000C4F82080C4F82490A762E56600F02A813A
:108B800006F032F8764806F0D1F8784806F0CEF8CC
:108B9000774806F0CBF8774806F0C8F8764806F034
:108BA000C5F8764806F0C2F8754806F0BFF8754873
:108BB00006F0BCF8D4F86880602508EB050A434647
:108BC000ADF8045000219C469F781CF801EBDE783C
:108BD0009CF800901D795A799879714419FA81F1BD
:108BE00017FA81F7083316FA87F615FA86F512FA9E
:108BF00085FC13F801EC10FA8CF21EFA82F0534552
:108C000081B2E0D1CF43454656495548ADF806708C
:108C100006F0AAF801995C485C4E06F0A5F8C8EB8E
:108C20000A0855F8041B5A48A8F10403C3F3820745
:108C300006F09AF8AA456BD0002F38D0012F2DD01E
:108C4000022F25D0032F1DD0042F15D0052F0DD0B6
:108C5000062F05D0304655F8041B4E4E06F084F81A
:108C6000304655F8041B06F07FF80436304655F8B8
:108C7000041B06F079F80436304655F8041B06F05C
:108C800073F80436304655F8041B06F06DF80436C8
:108C9000304655F8041B06F067F8043655F8041BF7
:108CA000304606F061F8AA4506F1040630D0A84621
:108CB000304658F8041B06F1040906F055F86968B7
:108CC000484606F051F8D8F8041006F1080006F0FE
:108CD0004BF8E96806F10C0006F046F8296906F140
:108CE000100006F041F8696906F1140006F03CF83E
:108CF000A96906F1180006F037F8203555F8041C6C
:108D000006F11C0006F030F8AA4506F12006CED187
:108D1000E56E214995F800A095F8018095F802C00C
:108D200095F803E02F796E79AB79EA791B48D04446
:108D3000C444E64477443E4433441A44D7430826A7
:108D4000ADF80670ADF8046006F00EF8019914480D
:108D500006F00AF82AE000BF660E7CC5000080BF5E
:108D60000040000843414C490000C0C200480008D0
:108D70000050000800580008006000080068000863
:108D80000070000800780008044000080C4000084B
:108D9000084000081040000853544154684000083F
:108DA0006C400008000070C2A470CD4129680748DB
:108DB00005F0DAFF6968064805F0D6FF0220A4F83E
:108DC0007000002002B0BDE8F08700BF70400008CE
:108DD00074400008988860287FF4D2AEE54B9A462C
:108DE00093F802C01AF8019B93F803E09AF8008008
:108DF0001F7998795E79E0494A4418FA82F21CFAA0
:108E000082FA1EFA8AFC083317FA8CF716FA87F9E9
:108E100013F8016C10FA89FE16FA8EF08B4282B2BA
:108E2000DDD1A1F168086FEA020AB8F806101FFA4E
:108E30008AFC61457FF4A4AECE492046602206F04C
:108E4000BBFC0121A4F87010CC4B0F01002900F0ED
:108E5000AA813B44CA4E1868B04200F0AA81B4F817
:108E6000701001293FF48CAED4ED086ADFEDC57AAD
:108E700086EEA70AB7EE007A70EE470AB5EE001A42
:108E8000F0EEE01AF4EEC11AF1EE10FA01DDC4EDD5
:108E9000087AD4ED0A5A9FEDBC6A94ED092ADFEDF9
:108EA000BB2A94ED0B1AC5EE866A012082EE223AA7
:108EB000F7EE007A36EEE70AD4ED006ADFEDB47A19
:108EC000DFEDB45AF0EEC00A86EEA70AF7EE003ADC
:108ED00033EE634AF5EE004AB0EEC45AB4EEE45AFB
:108EE000F1EE10FAC8BFC4ED092AD4ED0C2A94EDB6
:108EF0000D5AB5EE007ABFEE003AF4EEC70A73EEF3
:108F0000623AB0EEC12AF2EE041AF1EE10FAB4EEB3
:108F1000E12AC8BF84ED0A6AF0EEE34AF1EE10FAE6
:108F2000B5EE004AB7EE007AC8BF0023F4EEC44A9B
:108F300070EE470AC8BFE362B0EEC56AF1EE10FA00
:108F4000C4BF954B2363B4EEE56AF0EEE01AB5EECC
:108F5000001AD4ED020A94ED012ADFED902AD4ED37
:108F60000E4A94ED0F0AF1EE10FAF4EEC11A9FEDDD
:108F7000881AC0EE811AC4BF00236363BFEE003AB3
:108F8000A2EE223ABFEE005A75EE645AB0EEC34A22
:108F9000F5EE003AF1EE10FAB4EEE34AC8BFC4EDC4
:108FA000007AF0EEE56AF1EE10FAB5EE006AB7EE7F
:108FB000002AC8BF4FF08E43F4EEC66A71EEC22A93
:108FC000DFED747AC8BF6360B0EEC07AF1EE10FADC
:108FD000C4BF714BA363B4EEE77AF0EEE23AB5EEAC
:108FE000003AD4ED042A94ED034ADFED6C4AD4ED47
:108FF000106ADFED681AF1EE10FAF4EEC33A9FED55
:10900000643AC2EE833AC4BF0023E363BFEE005A62
:10901000A4EE245ABFEE000A30EE667AB0EEC56ABE
:10902000F5EE005AF1EE10FADFED5C6AC8BF84ED90
:10903000021AB4EEE56A94ED056A94ED111AF1EEA8
:1090400010FAF0EEC70AF5EE007ABFEE000AC8BFCC
:109050004FF08E43F4EEE70AA6EE260AC8BFE3609F
:10906000B7EE004AF1EE10FA73EEC44AB0EEC12A30
:10907000C8BF494BD4ED120AC8BF2364B4EEE12A3D
:10908000F1EE10FAF0EEE45AB5EE005ABFEE001A17
:10909000C8BF0023F4EEC55A71EE601AF0EEC07A34
:1090A000B5EE007AC8BF6364F1EE10FAF4EEC77A49
:1090B000C8BF84ED043AF0EEE12AF1EE10FA94ED27
:1090C000133ADFED343A9FED325A9FED341AB5EE84
:1090D000002AC8BF4FF08E43F4EEC22AC8BF6361B6
:1090E000B0EEC34AF1EE10FAC4BF2B4BA364B4EE4A
:1090F000E34AF1EE10FAC4BF0023E364D4ED064A5C
:10910000D4ED070A94F8601094F86150C4EE855AC3
:10911000FFEE007AB7EE006AE0EE817A75EEC66A7D
:10912000B5EE000AB0EEE67AB4EEC07AF5EE001ABB
:10913000B0EEE72AF1EE10FAB4EEE12AC8BF84EDF2
:10914000065AF1EE10FAC4BF4FF08E43E3610229D4
:1091500088BF022194F8623088BF84F86010022D25
:1091600084BF022584F86150032B84BF032384F855
:10917000623015E0084000086840000858400008C8
:1091800053544154000070C20000C0C2A470CD41CD
:10919000660E7CC5CDCCCC3D000080BF0000003801
:1091A00002B0BDE8F0871D4B1D4E1868B0427FF439
:1091B00056AE9A88082A7FF452AE93F808E093F8E6
:1091C000099093F80A8093F80BA093F80CC05F7B8A
:1091D0009E7BD87BD988F144C844C244D4446744B8
:1091E0003E44064486F47F4282F0FF07B94203F111
:1091F00008037FF434AE03CB28606960B4F870E0F4
:10920000084B094E0EF1010081B24FEA01194B449F
:10921000B342A4F870107FF617AE22E600400008B3
:109220005354415468400008008000082DE9F04381
:1092300083B0074605F0D8FC7E4805F077FD7E48F0
:1092400005F074FD7D4805F071FD7D4805F06EFD6B
:109250007C4805F06BFD7C4805F068FD7B4805F017
:1092600065FD7B4805F062FDD7F86880602208EB59
:1092700002064346ADF804200021184693F802E0A8
:1092800010F8019BDD7890F800C01C795A79987924
:1092900049441CFA81F11EFA81FE083315FA8EF555
:1092A00014FA85F412FA84F913F801CC10FA89F251
:1092B0001CFA82F0B34281B2DFD1CD434446654906
:1092C0005C48ADF8065005F04FFD01996248634DCA
:1092D00005F04AFDC8EB060854F8041B6048A8F1E5
:1092E0000403C3F3820905F03FFDB44272D0B9F123
:1092F000000F3ED0B9F1010F32D0B9F1020F29D0E1
:10930000B9F1030F20D0B9F1040F17D0B9F1050F4F
:109310000ED0B9F1060F05D0284654F8041B514D64
:1093200005F022FD284654F8041B05F01DFD043508
:10933000284654F8041B05F017FD0435284654F858
:10934000041B05F011FD0435284654F8041B05F0F4
:109350000BFD0435284654F8041B05F005FD0435C3
:1093600054F8041B284605F0FFFCB44205F104053F
:1093700030D0A046284658F8041B05F1040905F032
:10938000F3FC6168484605F0EFFCD8F8041005F1DD
:10939000080005F0E9FCE16805F10C0005F0E4FCCB
:1093A000216905F1100005F0DFFC616905F1140089
:1093B00005F0DAFCA16905F1180005F0D5FC2034B0
:1093C00054F8041C05F11C0005F0CEFCB44205F174
:1093D0002005CED1FC6E244994F8009094F801E069
:1093E00094F8028094F803C025796679A379E2792C
:1093F0001E48CE44C644E644754435442B441A44C2
:10940000D5430826ADF80650ADF8046005F0ACFC75
:109410000199174805F0A8FC2168164805F0A4FC3E
:109420006168154805F0A0FC0220A7F8700003B0A1
:10943000BDE8F08300400008004800080050000824
:10944000005800080060000800680008007000086C
:109450000078000843414C49044000080C400008D3
:109460000840000810400008535441546840000868
:109470006C40000870400008744000082DE9F0437B
:10948000B0F87010A94BAA4A07460801034493425A
:1094900083B040F2008105F0A7FBA64805F046FC2A
:1094A000A54805F043FCA54805F040FCA44805F09C
:1094B0003DFCA44805F03AFCA34805F037FCA3485E
:1094C00005F034FCA24805F031FCD7F86880602133
:1094D00008EB0106ADF80410434600219C4693F8C2
:1094E00002E01CF8019BDD789CF800C01C795A79D9
:1094F000987949441CFA81F11EFA81FE083315FA65
:109500008EF514FA85F412FA84F913F801CC10FAE6
:1095100089F21CFA82F0B34281B2DFD1CD434446D6
:109520008C498448ADF8065005F01EFC01998A4824
:109530008A4D05F019FCC8EB060854F8041B88484E
:10954000A8F10403C3F3820905F00EFCB44272D003
:10955000B9F1000F3ED0B9F1010F32D0B9F1020FCD
:1095600029D0B9F1030F20D0B9F1040F17D0B9F108
:10957000050F0ED0B9F1060F05D0284654F8041B8C
:10958000784D05F0F1FB284654F8041B05F0ECFB80
:109590000435284654F8041B05F0E6FB043528463C
:1095A00054F8041B05F0E0FB0435284654F8041B6E
:1095B00005F0DAFB0435284654F8041B05F0D4FB0B
:1095C000043554F8041B284605F0CEFBB44205F1DF
:1095D000040530D0A046284658F8041B05F10409BC
:1095E00005F0C2FB6168484605F0BEFBD8F80410E0
:1095F00005F1080005F0B8FBE16805F10C0005F085
:10960000B3FB216905F1100005F0AEFB616905F1BE
:10961000140005F0A9FBA16905F1180005F0A4FBF1
:10962000203454F8041C05F11C0005F09DFBB442E5
:1096300005F12005CED1FC6E4B4994F8009094F8CA
:1096400001C094F8028094F803E025796679A37943
:10965000E2793648CC44C444E644754435442B444E
:109660001A44D5430826ADF80650ADF8046005F05D
:109670007BFB01993D4805F077FB21683C4805F0EC
:1096800073FB61683B4805F06FFB0220A7F8700090
:1096900003B0BDE8F08305F0A7FAFC6EB7F87030B0
:1096A00094F8018094F8009094F802C094F803E0D4
:1096B00026796579A279E179C144E144F144B14464
:1096C000A94491444944C8430826ADF80600ADF8C2
:1096D0000460FBB1013B15482349264D4FEA0318AE
:1096E000404405F041FB21480199404405F03CFB12
:1096F0001F4845444044216805F036FB6168284610
:1097000005F032FBB7F87040621CA7F8702003B078
:10971000BDE8F08314490748104D05F025FB0E48BD
:10972000019905F021FB0E48E5E700BF68400008FD
:1097300000800008004000080048000800500008B1
:109740000058000800600008006800080070000869
:109750000078000843414C49044000080C400008D0
:109760000840000810400008535441546C40000861
:109770007040000874400008704700BF704700BF89
:10978000704700BF704700BF704700BF704700BF01
:10979000704700BF704700BF704700BF704700BFF1
:1097A00038B51F4CD4F8D830D4F8DC20054619441D
:1097B0006C2000FB0242072985E80C0025D8C4F87C
:1097C000D8101848294604F0DDFDD4F8D840D4B9A3
:1097D000154CDFED167AA3681248296804EB430C98
:1097E000BCF91C2007EE102ABAEEE87AB4EEE77A4C
:1097F000F1EE10FA54BF0022012204F057FD20467A
:109800002968FEF713FD284638BDD4F8DC305A1C11
:10981000083902F00100C4F8D810C4F8DC00D0E721
:10982000186E0020E46A0020586D00207B142EBEC4
:109830002DE9F003F6EE007A71EEE71A9FEDF06A7B
:10984000DFEDF06A90ED045A90ED003AD0ED014A58
:1098500090ED024AD0ED033A2DED048B71EEA12A72
:10986000F0EE005AFFEE008AB1EE047AE2EE258AAD
:10987000DDF828C0A1EE067AF4EE662A02EE10CAE0
:10988000F1EE10FA4CBFB0EE668AB0EE628AB8EE26
:10989000429A38EE451A30EE430A70EEE40A78EE4A
:1098A000C49A77EE637A81EE098AC0EE092A80EEC7
:1098B000892AC9EE891A87EE891ABCF1000F00F0D7
:1098C000B681D0F82890DFF850830C3300240EE1E5
:1098D000F4EEC04AF1EE10FACCBFB0EE407AB0EE32
:1098E000647AF7EE005AB4EEE87ACCBF75EEC05A4F
:1098F00075EEE45AF1EE10FAB6EE000A00F3458177
:10990000C0EE250A78EEC78AA0EEA80A9FEDBE9A9F
:10991000DFEDBE6A20EE090AB5EEC05AFDEEC08A40
:10992000F1EE10FA18EE907AC7F3090706EB470537
:1099300036F91760B5F9027000EE906AB5F904685F
:10994000B5F9025807EE907A06EE106AB8EEE77A9B
:1099500005EE905AB8EEC66A67EE267AF8EEE00A8F
:10996000F8EEE55A26EE266AE0EEE67AA5EEE66A1D
:10997000F8EEE88A30EE687A67EE277A27EE066A14
:10998000E0EEA67AA5EEA66A76EE676AE9EEA67A1A
:1099900040F3098165EE270A9D4E20EE899AFDEE7F
:1099A000C95A15EE907ABD00AE19D6ED009A96ED23
:1099B000017AF8EEE58A77EE696A39EE686AE6EED2
:1099C000269A0134DFED930A79EEE79A24EE209A85
:1099D000E5EE297AB0EEC97AF7EE008A38EEC76A6A
:1099E000B5EEC04AF2EE005AF0EEC66AF1EE10FA99
:1099F00067EEA57AFFEE000A78EEE69A48BFF0EE31
:109A0000608A28EEA79AF0EE008A78EEC75AF5EE43
:109A1000C09AF1EE10FA48BFDFED7A9AF0EEE56AEF
:109A2000F7EE007A77EEE60A58BFB0EE000A29EEAC
:109A3000296A58BF30EE690AF0EE089AF5EEC00ABE
:109A400079EEC75A48BFB0EE000A26EE000AF1EEE2
:109A500010FA48BFDFED6B0A03ED030AB0EEE56ACA
:109A6000F7EE006A36EEC60A69EE207A58BF78EE45
:109A7000E08AF1EE000AB5EEC00A30EEC77A67EE72
:109A8000A88AF1EE10FA48BF9FED5E0A43ED028A04
:109A9000F0EEC75AF7EE007A58BFF0EE008A77EE84
:109AA000E56A58BF78EEC08A69EE009A48BFF0EECA
:109AB000008AF5EEC06A29EEA86AF1EE10FA48BFF6
:109AC000DFED506A03ED016A5CBFB0EE006A36EE6E
:109AD000666A29EE269A48BFB0EE006A69EE068AE9
:109AE000644518EE905A43F8105B00F0A08033EE06
:109AF000223A74EE824A34EE214A35EE085A002AA0
:109B000054D099ED009A23EE096AF5EE005AB4EEAE
:109B1000E56A02EB8407F1EE10FA97ED007A39DD81
:109B2000B6EE000AB0EE656AF0EE406A67EE098AAA
:109B3000F7EE009AF4EE698AF1EE10FAC8BFF0EE83
:109B4000698A80ED146AB0EE667AC0ED108A73EE11
:109B5000813AF4EEC74AFDEEE37AF1EE10FA17EE21
:109B6000905AB8EEE79A05EB852673EEC99A08EB92
:109B700046067FF5ADAEB4EEE87AF1EE10FAF0EEFF
:109B8000405AB6EE000A7FF7BBAE80EE077A27EEAA
:109B9000280ABBE6B0EEC60A70EE006AF7EE000ACD
:109BA00030EEE60AC2E7DFED179A0AE70D5DAD0772
:109BB00001D50026066499ED006A63EE066AF5EEAB
:109BC000008AF4EEE86AF1EE10FA27DDB6EE000A3C
:109BD000F0EE686AB0EE407AD0ED100AC0ED146A7B
:109BE00076EEA09AF7EE007AF4EE679AF1EE10FAAC
:109BF000C8BFF0EE679AF0EE698AC0ED109AA6E74A
:109C00002EFFBF400000000000008044000000382C
:109C1000141C01083333A340242C0108F0EEE65A4B
:109C200035EEA57AB7EE009A39EE470AD4E7BDECD7
:109C3000048B80ED045AC0ED033A80ED024AC0ED7A
:109C4000014A80ED003ABDE8F00370472DE9F00FBE
:109C5000F6EE007A71EEE71A2DED088BDFEDD66A8D
:109C60009FEDD67AD0ED045A90ED009A90ED028ADD
:109C7000D0ED038A71EEA12AB0EE006AFFEE009AE1
:109C8000B1EE04AAE2EE069A86B0A1EE26AA0191F0
:109C9000F4EE472ADDED164A90ED011AF1EE10FAC6
:109CA0004CBFF0EE47AAF0EE62AAF8EE647A3AEE04
:109CB000E52A30EE490A70EEC10A39EEC83A7AEE6A
:109CC000683A14EE904AC0EE27AAC2EE27BA80EE98
:109CD000A70AC3EE279A83EEA7AA002C00F00A81F8
:109CE000D0F828B0DFF8E8A24FF0000938EE298A52
:109CF00031EE001AB5EEC08AF1EE10FA9FEDB04ACF
:109D0000DFEDAE1AC4BFF7EE007A77EEC17A28EE27
:109D1000045AD8BFF0EE417A27EE85BAF0EE086A11
:109D2000F0EE007AB0EE417AF0EE412AB0EE412A30
:109D3000ABEE217AEBEE272AABEE262A7BEE010A68
:109D400039EE2A9A75EEAB5A8DED027ACDED042AE2
:109D50008DED052ACDED030A002A00F0F880DBED39
:109D6000002A29EE224AB5EE006AB4EEC64A02EB9A
:109D70008906F1EE10FAD6ED004A40F3DC80F6EEEB
:109D8000001AB0EE464AB0EE612A64EEA20AB7EEBF
:109D9000005AF4EE450AF1EE10FAC8BFF0EE450A9B
:109DA00080ED144AC0ED100A78EE8A8A02A9BDEE51
:109DB000E8BA0DF118081BEE107AF8EECB7A07EB33
:109DC000872438EEE73A0AEB44071E46F1EC012AF5
:109DD000F4EEC22AF1EE10FA00F19C80F4EEE12AD2
:109DE000F1EE10FAC8BFF0EE612AF7EE006AF4EE69
:109DF000E02AD4BF76EEE26A76EEE16AF1EE10FA7E
:109E0000B6EE006A00F3928086EE267A70EEE24AA1
:109E1000A7EE246A9FED6BBADFED6B7A26EE0B4A54
:109E2000F5EEC05AFDEEC46AF1EE10FA16EE905A45
:109E3000C5F3090C07EB4C0437F91C50B4F902C008
:109E400002EE905AB4F90458B4F9024807EE10CA69
:109E500006EE105AF8EEC74AF8EEC63A05EE104A7A
:109E600024EEA77A23EEA76AF8EEE22AB8EEC55AE6
:109E7000A2EEE77AA5EE676AF8EEE66A34EE664A85
:109E800064EE074A64EE063AE2EEA74AE5EE273AA8
:109E900073EEE47AE3EE274A56DD25EEA47A4B4DC5
:109EA00067EE0B2ABDEEE25A15EE104A4FEA840C1B
:109EB000654495ED00BAD5ED016AB8EEC56A76EE57
:109EC000CB3A32EEC64AA4EE23BA41457BEE647A21
:109ED000B2EE00BAE5EEA74A64EE8B4AE6EC014A20
:109EE0007FF474AF169909F10109894503F1100354
:109EF0007FF4FCAEC0ED045AC0ED038A80ED028A07
:109F000080ED011A80ED009A06B0BDEC088BBDE82B
:109F1000F00F7047F0EE422AF4EEE02AF1EE10FA6C
:109F2000F0EE616AB6EE006A7FF76EAFC6EE223AD7
:109F300023EEA06A6EE7B0EEC43A33EE032AF7EEE2
:109F4000003A73EEC21A20E79FED1CBABDE70199F3
:109F500011F80950A90701D5C0ED101A9BED003A80
:109F600029EE03BAF5EE003AB4EEE3BAF1EE10FAD8
:109F700019DDF6EE001AB0EE63BAB0EE612AD0ED4C
:109F8000107A80ED14BA7BEE276AB7EE007AF4EE11
:109F9000476AF1EE10FAC8BFF0EE476AF0EE660AC3
:109FA000C0ED106A00E7B0EECB4A34EE042AB7EEFB
:109FB000005A75EE421AE2E72EFFBF400000000093
:109FC000ABAAAA3E0000804400000038141C01081F
:109FD000242C01082DE9F00FF6EE007A71EEE71A55
:109FE0002DED088BDFEDD66A9FEDD67AD0ED045AC1
:109FF00090ED009A90ED028AD0ED038A71EEA12ACD
:10A00000B0EE006AFFEE009AB1EE04AAE2EE069A04
:10A0100086B0A1EE26AA0191F4EE472ADDED164A9C
:10A0200090ED011AF1EE10FA4CBFF0EE47AAF0EEF7
:10A0300062AAF8EE647A3AEEE52A30EE490A70EE4A
:10A04000C10A39EEC83A7AEE683A14EE904AC0EE88
:10A0500027AAC2EE27BA80EEA70AC3EE279A83EE9C
:10A06000A7AA002C00F00A81D0F828B0DFF8E8A2F7
:10A070004FF0000938EE298A31EE001AB5EEC08A99
:10A08000F1EE10FA9FEDB04ADFEDAE1AC4BFF7EE65
:10A09000007A77EEC17A28EE045AD8BFF0EE417A02
:10A0A00027EE85BAF0EE086AF0EE007AB0EE417A5B
:10A0B000F0EE412AB0EE412AABEE217AEBEE272AF0
:10A0C000ABEE262A7BEE010A39EE2A9A75EEAB5AE0
:10A0D0008DED027ACDED042A8DED052ACDED030A32
:10A0E000002A00F0F880DBED002A29EE224AB5EEC6
:10A0F000006AB4EEC64A02EB8906F1EE10FAD6ED1C
:10A10000004A40F3DC80F6EE001AB0EE464AB0EEAC
:10A11000612A64EEA20AB7EE005AF4EE450AF1EEA7
:10A1200010FAC8BFF0EE450A80ED144AC0ED100ADF
:10A1300078EE8A8A02A9BDEEE8BA0DF118081BEE86
:10A14000107AF8EECB7A07EB872438EEE73A0AEB81
:10A1500044071E46F1EC012AF4EEC22AF1EE10FA91
:10A1600000F19C80F4EEE12AF1EE10FAC8BFF0EEA7
:10A17000612AF7EE006AF4EEE02AD4BF76EEE26AD6
:10A1800076EEE16AF1EE10FAB6EE006A00F3928024
:10A1900086EE267A70EEE24AA7EE246A9FED6BBA4D
:10A1A000DFED6B7A26EE0B4AF5EEC05AFDEEC46A7F
:10A1B000F1EE10FA16EE905AC5F3090C07EB4C04B9
:10A1C00037F91C50B4F902C002EE905AB4F90458A1
:10A1D000B4F9024807EE10CA06EE105AF8EEC74A64
:10A1E000F8EEC63A05EE104A24EEA77A23EEA76AE7
:10A1F000F8EEE22AB8EEC55AA2EEE77AA5EE676A53
:10A20000F8EEE66A34EE664A64EE074A64EE063A11
:10A21000E2EEA74AE5EE273A73EEE47AE3EE274A48
:10A2200056DD25EEA47A4B4D67EE0B2ABDEEE25AC1
:10A2300015EE104A4FEA840C654495ED00BAD5ED51
:10A24000016AB8EEC56A76EECB3A32EEC64AA4EEA3
:10A2500023BA41457BEE647AB2EE00BAE5EEA74A36
:10A2600064EE8B4AE6EC014A7FF474AF169909F16B
:10A270000109894503F110037FF4FCAEC0ED045AD7
:10A28000C0ED038A80ED028A80ED011A80ED009A0C
:10A2900006B0BDEC088BBDE8F00F7047F0EE422A27
:10A2A000F4EEE02AF1EE10FAF0EE616AB6EE006A22
:10A2B0007FF76EAFC6EE223A23EEA06A6EE7B0EEED
:10A2C000C43A33EE032AF7EE003A73EEC21A20E7DF
:10A2D0009FED1CBABDE7019911F80950A90701D5F6
:10A2E000C0ED101A9BED003A29EE03BAF5EE003AE4
:10A2F000B4EEE3BAF1EE10FA19DDF6EE001AB0EEA4
:10A3000063BAB0EE612AD0ED107A80ED14BA7BEE1C
:10A31000276AB7EE007AF4EE476AF1EE10FAC8BF8A
:10A32000F0EE476AF0EE660AC0ED106A00E7B0EEA4
:10A33000CB4A34EE042AB7EE005A75EE421AE2E731
:10A340002EFFBF4000000000ABAAAA3E00008044E0
:10A3500000000038141C0108242C01082DE9F04FDE
:10A36000604CD0ED016AD0ED007A94F8628094F8E8
:10A3700061909FED5D7A94F860A036EEA70AB8F17F
:10A38000010F2DED028B94BF4FF0000B4FF0010B2E
:10A39000B4EEC70AB9F1010F94BF4FF000094FF0B6
:10A3A0000109F1EE10FA8BB005460F4600F1E28488
:10A3B0009FED4E8AB4EE480AF1EE10FAD8BFB0EE27
:10A3C000408ABBF1000F40F0B48487B3EA7E95F871
:10A3D000233002F0010003F00101022F287785F8F5
:10A3E000241024D96E7F95F825C006F001020CF0E8
:10A3F000010E042FAA7785F826E018D9E87F95F892
:10A40000273000F0010103F00106062F85F8201027
:10A4100085F828600BD995F821C095F829000CF033
:10A42000010200F0010E85F8222085F82AE06B7EFB
:10A43000002B6FD02E4E3378002B40F0F984B6EE0F
:10A44000007ADFED2C8A2C4BDFED2C6A93ED020AAB
:10A45000D3ED037AD3ED010AB0EE471AA8EE281A1D
:10A4600093ED048AE1EE007AF8EEC81A77EEA62A98
:10A47000BFEE002AF4EEE12AF1EE10FAB7EE006A20
:10A48000C8BFB0EE426AE0EE862A32EE873AFDEEB1
:10A49000C33A13EE902A002AC0F2C48518681849FE
:10A4A0008242A8BF00F1FF3201EBC20003C80DF1E8
:10A4B000180C1A618CE80300B9F1000F40F0BC855C
:10A4C0000022079B0F49029105F1230001900093A0
:10A4D0000397069B0C48494603F040F8002232706F
:10A4E00048E000BFFC6E0020000000C30000FE42F8
:10A4F000706F002031082C3C3C71002000000000EF
:10A500002C690020F86D0020F46F0020000000434B
:10A51000000080435FED030A1FED031ACE4ECF4AC1
:10A52000CF4994F861C078EE201A01EB8C0EBDEE95
:10A53000E12ADEED002AB8EEC26A12EE100A31EE10
:10A54000C63A06EB800323EE014AD3ED003AFDEE56
:10A55000C44A14EE906A02EB860292ED005A63EE52
:10A56000855A25EEA20ABBF1000F40F04E84BD498A
:10A5700001200870BC48BD4E0178414513D04FF012
:10A58000000C80F80080C6F8D0C0C6F8D4C0C6F869
:10A59000D8C0C6F8DCC0C6F8E0C0C6F8E4C0C6F84B
:10A5A000E8C0C6F8ECC02B7ED5ED030A95ED024A53
:10A5B00095ED048A95ED052A002B00F0B38305F193
:10A5C0001B010022F5EE004AB4EE640AF1EE10FA27
:10A5D000C8BFB0EE640AB9F1000F07D1B6EE005A59
:10A5E000F4EEC50AF1EE10FA00F1FD83F6EE001A62
:10A5F00070EEE12A1AB1BAF1020F00F00D84B0EE4C
:10A60000E23AF1EE044AF0EE088AE3EE248A9FED86
:10A61000985AA8EE805AF5EE0E7AC5EE275AF7EE54
:10A62000001A31EEE57AB6EE001AB5EEC07AF1EE18
:10A6300010FA34EE414A00F1EC83B4EEE17AF1EE27
:10A6400010FA40F3F384F6EE002AB4EEE28AB0EE9C
:10A65000621AF1EE10FAA4EE211A2BDDB0EEC46AF4
:10A6600036EE063AF1EE043A63EE214AF0EE087A4D
:10A67000E4EEA37A9FED7F4A9FED7F5A68EEA78AAA
:10A6800038EE627AA8EE804AF7EE001A84EE058A68
:10A6900071EEC86AF5EEC06AF1EE10FA00F1CD83F2
:10A6A000F4EEE16AF1EE10FA40F3CE84B6EE008AE1
:10A6B000A7EE218A08EB8A00704B09EB400E03EBF2
:10A6C000CE0CDCF8040010F0010F40F0238353F8A7
:10A6D0003EA006EB60000097F0EE481A684BD047AA
:10A6E000B6EE000AB4EEC08AF1EE10FA40F14781EE
:10A6F00038EE082A62EE020A20EEA01AB8F1000F26
:10A7000040F03C83D6ED142AF7EE003AE2EEC03A70
:10A7100021EE235AA2EE805A8DED065A07F1FF3939
:10A72000002F00F02C81574896ED347A10ED044A42
:10A73000DDED068AD6ED386A74EE474A00F1100E58
:10A74000A4EEA87A09F00701BA1E77EE667AE7EE62
:10A75000A86A40ED046AB9F1000F00F00C810029ED
:10A7600000F09280012963D0022952D0032941D000
:10A77000042930D005291FD006290ED05EED045AD9
:10A7800075EEC71A013AA1EEA87A37EE660AE0EE36
:10A79000286A4EED046A00F1200E5EED040A30EEE8
:10A7A000C71A013AA1EE287A0EF1100E37EE668A2A
:10A7B000E8EE286A4EED086A1EED046A36EE473A66
:10A7C000013AA3EE287A0EF1100E37EE662AE2EE79
:10A7D000286A4EED086A5EED042A72EEC73A013A25
:10A7E000A3EEA87A0EF1100E37EE665AE5EE286A4F
:10A7F0004EED086A1EED044A74EE474A013AA4EE93
:10A80000A87A0EF1100E77EE667AE7EEA86A4EEDA2
:10A81000086A5EED045A75EEC71A013AA1EEA87AED
:10A820000EF1100E37EE660AE0EE286A4EED086A69
:10A830005EED040A30EEC71A013AA1EE287A511CE7
:10A840000EF1100E37EE668AE8EE286A4EED086AC1
:10A8500000F0918018E000BF488D01084C9101087C
:10A860003C8C0108706F0020886B0020446C002035
:10A87000000000BDABAA2ABDABAAEA3E246A0020B4
:10A88000746F0020846F0020CDF814B01EED046AB0
:10A89000DEED002A36EE473A0EF11001A3EE287ADB
:10A8A00001F110000EF1300B0EF1400A37EE662A6E
:10A8B00072EEC73AE2EE286A0EF150090EF1600816
:10A8C000A3EEA87A0EF1700C083A4EED046A91EDF1
:10A8D000004A37EE665A74EE474AE5EE286A0EF1F2
:10A8E000800EA4EEA87A41ED046A77EE667A511CD8
:10A8F000E7EEA86A40ED046A5BED045A75EEC71AEC
:10A90000A1EEA87A37EE660AE0EE286A4BED046AFB
:10A910005AED040A30EEC71AA1EE287A37EE668A9D
:10A92000E8EE286A4AED046A19ED046A36EE473A01
:10A93000A3EE287A37EE662AE2EE286A49ED046A29
:10A9400058ED042A72EEC73AA3EEA87A37EE665A9B
:10A95000E5EE286A48ED046A1CED044A74EE474AA5
:10A96000A4EEA87A77EE667AE7EEA86A4CED046A60
:10A970008CD1DDF814B086ED347AC6ED386ABBF1BF
:10A98000000F40F05781002F00F04F81DF48D4EDD9
:10A99000008AD0ED006A94ED017AA6EEA87A4FF60F
:10A9A000FF7E01267B1EFDEEC75A05F1020B15EE58
:10A9B000902A7245A8BF724622EAE271A985D0EDBD
:10A9C000011A94ED020AD4ED030AE1EE800A00F1C7
:10A9D00010023340BDEEE01A11EE101A7145A8BF07
:10A9E000714621EAE171A98790ED028A94ED046A2B
:10A9F00094ED053AA8EE063ABDEEC32A12EE101AFF
:10AA00007145A8BF714621EAE171A5F84C10D0ED5F
:10AA1000032AD4ED063A94ED075AA2EEA35ABDEEEE
:10AA2000C54A14EE101A7145A8BF714621EAE171BA
:10AA3000BE42A5F85C1000F0F880002B52D0D2ED99
:10AA4000004AD4ED008AD4ED017AE4EEA87A022619
:10AA5000FDEEE76A16EE905A7545A8BF754625EAE1
:10AA6000E573ABF82C30D2ED015A94ED027AD4EDB7
:10AA7000031AE5EE871ABDEEE10A10EE101A7145D1
:10AA8000A8BF714621EAE17AABF83CA0D2ED020AF8
:10AA900094ED041A94ED058AA0EE818ABDEEC86A91
:10AAA00016EE109AF145A8BFF14629EAE978ABF80D
:10AAB0004C8092ED033A94ED062AD4ED072AE3EE9A
:10AAC000022A00F12002FDEEE23A13EE90CAF445AC
:10AAD000B8BFE6462EEAEE70BE42ABF85C00B34467
:10AAE00000F0A38092ED005A94ED004AD4ED014AA3
:10AAF000E5EE044A4FF6FF7E0BF1020102F110056C
:10AB0000FDEEE48A023618EE903A7345A8BF73460C
:10AB100023EAE370ABF82C00D2ED016AD4ED025ABF
:10AB2000D4ED037AE6EEA57A20320BF1040BBDEEEC
:10AB3000E77A17EE103A7345A8BF734623EAE3702D
:10AB4000ABF8380052ED061A94ED040AD4ED050A6C
:10AB5000E1EE800ABDEEE01A11EE103A7345A8BF8F
:10AB6000734623EAE370ABF8480012ED058A94EDD2
:10AB7000066A94ED073AA8EE063ABDEEC32A12EE35
:10AB8000103A7345A8BF734623EAE370ABF8580048
:10AB900052ED042AD4ED003A94ED015AA2EEA35AE4
:10ABA000BDEEC54A14EE103A7345A8BF734623EABA
:10ABB000E3708885D5ED014AD4ED028AD4ED036AAD
:10ABC000E4EEA86AFDEEE65A15EE903A7345A8BF8A
:10ABD000734623EAE3708887D5ED021A94ED047A70
:10ABE000D4ED057AE1EE877ABDEEE70A10EE103A71
:10ABF0007345A8BF734623EAE370A1F84C00D5ED76
:10AC0000030A94ED061A94ED078AA0EE818ABDEE40
:10AC1000C86A16EE10AAF245B8BFD6462EEAEE75FF
:10AC2000BE42A1F85C507FF45DAF0BB0BDEC028B6F
:10AC3000BDE8F08F002FF8D0354B05EB870713EDFB
:10AC4000033A94ED002AD4ED012AE3EE022A4FF6EE
:10AC5000FF769A460435FDEEE23A103313EE902A61
:10AC6000B242A8BF324622EAE27B1FFA8BF9A5F86E
:10AC70002A90A5F8289013ED065A94ED024AD4EDD7
:10AC8000034AE5EE044AFDEEE48A18EE908AB045E8
:10AC9000A8BFB04628EAE87C1FFA8CFEA5F83AE087
:10ACA000A5F838E053ED056AD4ED045AD4ED051A41
:10ACB000E6EEA51ABDEEE17A17EE101AB142A8BF72
:10ACC000314621EAE17082B2A5F84A20A5F8482071
:10ACD0009AED000AD4ED060AD4ED077AE0EE207A68
:10ACE000BDEEE71A11EE10BAB345B8BF5E4626EACC
:10ACF000E676B1B2A5F85A10A5F85810BD429ED11B
:10AD00000BB0BDEC028BBDE8F08F00BF746F00206C
:10AD1000806F0020401053F83E903358304453F871
:10AD200009A0D8E46A7ECB49002A3FF44AACCA4A5B
:10AD300048E47F083FF47BAB012F7FF678AB697F57
:10AD400095F825302977022F85F824307FF66FABF0
:10AD5000EE7F95F827006E77032F85F825007FF6A4
:10AD600066AB95F8212095F82910AA7785F826106A
:10AD7000FFF75DBBB0EE478AFFF723BBB8F1030FC7
:10AD8000B649D6ED142A5BD1B7EE004AD1ED153A9B
:10AD9000D1ED167AD1ED174AB0EE445AF0EE448A5E
:10ADA000B0EE447AA3EEC05AE2EEC08AA7EEC07AB3
:10ADB000A4EEC04A61EE056A61EE285A61EE071AF8
:10ADC00021EE048AE3EE806AE2EE805AE7EE801A12
:10ADD000A4EE808ACDED076ACDED065ACDED081AB6
:10ADE0008DED098A40E070EEC58ADFED9D7ADFEDDA
:10ADF0009D6AF0EEE85A68EEA60A35EEA77A80EE74
:10AE0000871A71EE050AFFF7F1BB30EE000AFFF773
:10AE1000AEBBDFED951A16E4B0EE006AB0EEE23A92
:10AE2000F7EE003AE3EE063A20EE230AFFF7E9BB1D
:10AE30008E4802F0B7F8FFF702BBDFED8B1A35E45E
:10AE4000B7EE006AA2EEC06A21EE063AA2EE803AA0
:10AE50008DED063A8DED073A8DED083A8DED093A04
:10AE6000B8F1000F3FF45AACF807814BD6ED342A05
:10AE700096ED383AD6ED353A96ED395A96ED364A92
:10AE8000D6ED3A8AD6ED374A96ED3B2A394640F15F
:10AE9000B380A3F11008D8ED000A9DED060ADDEDA0
:10AEA000076A9DED087ADDED097A30EEE21AC646B2
:10AEB000E0EE012A791E103332EEC36AA0EE063AA4
:10AEC00088ED003A53ED075A53ED061A13ED058A43
:10AED00035EEE30A71EEC40A38EE641AE6EE803A03
:10AEE000A7EE204AE7EE814A73EEC55A74EE681A5F
:10AEF00034EEC26AA6EEA55AE7EE218AA7EE862AAC
:10AF000003ED075A43ED068A03ED052A74E013EDBD
:10AF1000048ADDED065A93ED000A53ED030A13EDA2
:10AF2000021A53ED011ADDED076A9DED087ADDED99
:10AF3000097A38EE626A70EEE30AE5EE862A411E6F
:10AF400031EE441A32EEC38A30EE620A71EEE41A30
:10AF5000A5EE883AE6EEA03AA7EE014AE7EEA14A4E
:10AF6000E5EE802A34EEC21A32EEC36A33EEC50A29
:10AF700074EE680AB0EE438AF0EE421AA5EE868AB5
:10AF8000A6EE805AE7EE208AE7EE811A83ED008A6A
:10AF900003ED035A43ED028A43ED011A03ED043A2F
:10AFA0001CED036A1CED022A1CED013A36EE630A21
:10AFB00072EE440A33EE641AE6EE803A0CF11003A6
:10AFC000A7EE204AE7EE814AF0EE485A34EEE12A35
:10AFD00033EEC58A34EE686AE7EE821AA6EE885A26
:10AFE000E7EE068AB0EE653A0CED035A4CED028AA4
:10AFF0004CED011AB0EE612A03F1100C481E002935
:10B0000085D1C6ED342A86ED383AC6ED353A86ED5F
:10B01000395A86ED364AC6ED3A8AC6ED374A86ED8C
:10B020003B2AACE413480022FFF740BA67EE076AF8
:10B0300067EE261AFFF707BBBAF1020EDEF1000336
:10B0400053EB0E02FFF73DBA66EEA65A66EEA51A5E
:10B05000FFF72CBBF06D0020F86D0020446C002041
:10B06000CDCCCC3D9A99193F00000000F46F002030
:10B07000846F00202C6900202DE9F00FF6EE007A95
:10B0800071EEE71A2DED048BDFEDE75A9FEDE76ACD
:10B09000D0ED044AD0ED002A90ED023A90ED034A3B
:10B0A00071EEA13AB0EE005AFFEE006AB1EE047AFA
:10B0B000E2EE056A82B09146A1EE257A0191F4EEA6
:10B0C000463ADDED0E8A90ED015AF1EE10FA4CBFD2
:10B0D000B0EE468AB0EE638AB8EE689A38EE641A2B
:10B0E00070EEC50A30EE620A76EEC39A77EE447AC5
:10B0F00018EE904A81EE098AC0EE891A80EE092A7C
:10B1000089EE891AC7EE890A002C00F07C81D0F8FC
:10B1100028B0C74C0C330021DEE0B4EEE85AF1EE63
:10B1200010FACCBFB0EE687AB0EE457AF7EE006A5E
:10B13000B4EEE77ACCBF76EEE86A76EEC56AF1EE59
:10B1400010FAF6EE008A00F3178188EEA69A37EE21
:10B15000C77AE9EE078A9FEDB79ADFEDB76A68EE26
:10B16000898AF5EEC04ABDEEE86AF1EE10FA16EEF5
:10B17000106AC6F309024FEA420505F1020705F617
:10B1800004063CF907803CF906A005F6020500EE2E
:10B19000108A05EE90AA3CF912803CF905C0B8EE81
:10B1A000C07A03EE90CA00EE108AF8EEE55AB8EEC7
:10B1B000C00A27EE267AF8EEE33A65EEA65AA0EE2C
:10B1C000667AE3EEE65AB8EEC66A38EEC66A66EE0E
:10B1D000078A26EE257AE0EE268AA3EEA67AB0EE5E
:10B1E000680A77EE686AA9EEA60A40F3D38064EE97
:10B1F000803ADFF84C8223EE899AFDEEC95A15EEAB
:10B2000090AA4FEA8A0CE04498ED007AD8ED016AE2
:10B21000F8EEE58AF0EE479A79EE683A36EEC79A8C
:10B22000E3EE899AE75FA65F34F91220655F9FED30
:10B23000827ADFED7E5A06EE907A03EE906A09EE8E
:10B24000102A08EE905AF8EEE66AF8EEE33AB8EE05
:10B25000C99AF8EEE88A66EE876A63EE873AE9EE05
:10B26000476A0E9EE8EEC73A013166EE266A26EE80
:10B27000236AE9EE076AA8EE876A79EEC09A36EE8D
:10B28000667AA4EEA90AE7EE256AB4EEE75AF7EE6D
:10B29000008AB2EE009AF1EE10FAF4EEE87A20EEAF
:10B2A000090A8CBFF0EE657AF0EE497AF1EE10FAF9
:10B2B00066EE893AB8BFB0EE659A63EE006A19EEA1
:10B2C000107AB14243ED023A43ED036A43ED017A4D
:10B2D00043F8107B00F0978072EE822A35EE215AF7
:10B2E00033EE013A74EE884AB9F1000F55D0DBED28
:10B2F000003A22EEA36AF5EE006AB4EEE66A09EBC4
:10B300008107F1EE10FA97ED009A3ADDF6EE008A29
:10B31000B0EE666AB0EE680A69EE237AF7EE009A3C
:10B32000F4EE697AF1EE10FAC8BFF0EE697A80EDBA
:10B33000146AB0EE407AC0ED107A34EE204A3F4AEB
:10B34000FDEEC45AB4EEC75A15EE90CAF8EEE53ACF
:10B350000CEB8C25F1EE10FA74EE639A02EB450CBF
:10B360007FF5DBAEB4EEE77AF1EE10FAF0EE686A44
:10B37000F6EE008A7FF7E9AE88EE876A66EE278AE6
:10B38000E9E6F0EEC68A38EEA80AB7EE007A77EE64
:10B39000408AC1E7DFED259A44E7019D6A5C920788
:10B3A00001D500260664DBED005A22EEA59AB5EE23
:10B3B000006AB4EEC69AF1EE10FA1BDDF6EE008AD2
:10B3C000B0EE469AB0EE687A90ED100A80ED149ACD
:10B3D00079EE009AF7EE007AF4EE679AF1EE10FA41
:10B3E000CCBFF0EE675AF0EE695AF0EE657AC0ED28
:10B3F000105AA2E7F0EEC93A33EEA37AF7EE006AEC
:10B4000076EEC78AE0E7C0ED044A80ED034A80ED9E
:10B41000023A80ED015AC0ED002A02B0BDEC048B67
:10B42000BDE8F00F704700BF2EFFBF4000000000D6
:10B43000346C01080000804400000038242C01080E
:10B44000141C01082DE9F00FF6EE007A71EEE71AF0
:10B450002DED048BDFEDE75A9FEDE76AD0ED044A4E
:10B46000D0ED002A90ED023A90ED034A71EEA13A38
:10B47000B0EE005AFFEE006AB1EE047AE2EE056A21
:10B4800082B09146A1EE257A0191F4EE463ADDEDC7
:10B490000E8A90ED015AF1EE10FA4CBFB0EE468ADA
:10B4A000B0EE638AB8EE689A38EE641A70EEC50A98
:10B4B00030EE620A76EEC39A77EE447A18EE904A3E
:10B4C00081EE098AC0EE891A80EE092A89EE891A6E
:10B4D000C7EE890A002C00F07C81D0F828B0C74C58
:10B4E0000C330021DEE0B4EEE85AF1EE10FACCBFE6
:10B4F000B0EE687AB0EE457AF7EE006AB4EEE77A1D
:10B50000CCBF76EEE86A76EEC56AF1EE10FAF6EE9A
:10B51000008A00F3178188EEA69A37EEC77AE9EE23
:10B52000078A9FEDB79ADFEDB76A68EE898AF5EE74
:10B53000C04ABDEEE86AF1EE10FA16EE106AC6F3E4
:10B5400009024FEA420505F1020705F604063CF937
:10B5500007803CF906A005F6020500EE108A05EE0C
:10B5600090AA3CF912803CF905C0B8EEC07A03EE0F
:10B5700090CA00EE108AF8EEE55AB8EEC00A27EE3F
:10B58000267AF8EEE33A65EEA65AA0EE667AE3EE86
:10B59000E65AB8EEC66A38EEC66A66EE078A26EE46
:10B5A000257AE0EE268AA3EEA67AB0EE680A77EE58
:10B5B000686AA9EEA60A40F3D38064EE803ADFF809
:10B5C0004C8223EE899AFDEEC95A15EE90AA4FEAF5
:10B5D0008A0CE04498ED007AD8ED016AF8EEE58A2D
:10B5E000F0EE479A79EE683A36EEC79AE3EE899A1A
:10B5F000E75FA65F34F91220655F9FED827ADFED89
:10B600007E5A06EE907A03EE906A09EE102A08EE52
:10B61000905AF8EEE66AF8EEE33AB8EEC99AF8EE18
:10B62000E88A66EE876A63EE873AE9EE476A0E9E1D
:10B63000E8EEC73A013166EE266A26EE236AE9EEA5
:10B64000076AA8EE876A79EEC09A36EE667AA4EEAB
:10B65000A90AE7EE256AB4EEE75AF7EE008AB2EEE1
:10B66000009AF1EE10FAF4EEE87A20EE090A8CBFA7
:10B67000F0EE657AF0EE497AF1EE10FA66EE893A6C
:10B68000B8BFB0EE659A63EE006A19EE107AB14267
:10B6900043ED023A43ED036A43ED017A43F8107B30
:10B6A00000F0978072EE822A35EE215A33EE013A8D
:10B6B00074EE884AB9F1000F55D0DBED003A22EE66
:10B6C000A36AF5EE006AB4EEE66A09EB8107F1EED3
:10B6D00010FA97ED009A3ADDF6EE008AB0EE666A4F
:10B6E000B0EE680A69EE237AF7EE009AF4EE697A12
:10B6F000F1EE10FAC8BFF0EE697A80ED146AB0EE90
:10B70000407AC0ED107A34EE204A3F4AFDEEC45A2A
:10B71000B4EEC75A15EE90CAF8EEE53A0CEB8C255C
:10B72000F1EE10FA74EE639A02EB450C7FF5DBAE96
:10B73000B4EEE77AF1EE10FAF0EE686AF6EE008AFF
:10B740007FF7E9AE88EE876A66EE278AE9E6F0EED3
:10B75000C68A38EEA80AB7EE007A77EE408AC1E7CB
:10B76000DFED259A44E7019D6A5C920701D500262A
:10B770000664DBED005A22EEA59AB5EE006AB4EE3F
:10B78000C69AF1EE10FA1BDDF6EE008AB0EE469A8C
:10B79000B0EE687A90ED100A80ED149A79EE009A76
:10B7A000F7EE007AF4EE679AF1EE10FACCBFF0EE05
:10B7B000675AF0EE695AF0EE657AC0ED105AA2E7CA
:10B7C000F0EEC93A33EEA37AF7EE006A76EEC78A56
:10B7D000E0E7C0ED044A80ED034A80ED023A80EDD7
:10B7E000015AC0ED002A02B0BDEC048BBDE8F00F99
:10B7F000704700BF2EFFBF4000000000346C0108FE
:10B800000000804400000038242C0108141C0108AA
:10B810002DE9F003F6EE007A71EEE71A9FEDE96A82
:10B82000DFEDE96A90ED045A90ED003AD0ED014A5F
:10B8300090ED024AD0ED033A2DED048B71EEA12A72
:10B84000F0EE005AFFEE008AB1EE047AE2EE258AAD
:10B85000DDF828C0A1EE067AF4EE662A02EE10CAE0
:10B86000F1EE10FA4CBFB0EE668AB0EE628AB8EE26
:10B87000429A38EE451A30EE430A70EEE40A78EE4A
:10B88000C49A77EE637A81EE098AC0EE092A80EEC7
:10B89000892AC9EE891A87EE891ABCF1000F00F0D7
:10B8A0008181D0F82890DFF834830C330024E7E05E
:10B8B000F4EEC04AF1EE10FACCBFB0EE407AB0EE32
:10B8C000647AF7EE005AB4EEE87ACCBF75EEC05A4F
:10B8D00075EEE45AF1EE10FAB6EE000A00F31E819E
:10B8E000C0EE250A78EEC78AA0EEA80A9FEDB79AA7
:10B8F000DFEDB76A20EE090AB5EEC05AFDEEC07A58
:10B90000F1EE10FA17EE907AC7F3090706EB470538
:10B9100036F91760B5F9027000EE906AB5F904685F
:10B92000B5F9025808EE907A06EE106AB8EEE87A99
:10B9300005EE905AF8EEC68A27EE267A28EEA66A19
:10B94000F8EEE00AF8EEE55AA0EEE67AA5EEE66A31
:10B95000F8EEE77A30EE670A20EE077A60EE068AA4
:10B96000A0EEA67AE5EEA68A78EEC76AA9EEA67AD8
:10B9700040F3E28065EE070A964E20EE899AFDEECE
:10B98000C95A15EE907ABD00AE19D6ED007A96ED43
:10B99000010AB8EEE56A70EE676A79EE468AE8EE6B
:10B9A000A67AF0EE679ADFED8C0ADFED876A24EE67
:10B9B000209AF7EE007AB0EEC96A37EEC60AF0EECA
:10B9C000005A75EEC60A79EEC79AF0EE088A78EE4C
:10B9D000C65AB0EEC09AF1EE008A37EEC90A38EEC8
:10B9E000C66AA5EE297A0134F0EEE09A77EEE90A0C
:10B9F000B4EEE64AB0EEE59A77EEC95AF1EE10FAE7
:10BA0000F0EEC69AB4EEE60AFFEE008A58BFF0EEFA
:10BA1000678AB2EE006AF1EE10FA77EEE97AF4EE98
:10BA2000E60A48BFB0EE660A27EE067AF1EE10FA93
:10BA3000F4EEE65A48BFF0EE660AF1EE10FAF4EEC4
:10BA4000E67A28EE879A48BFF0EE665AF1EE10FAD1
:10BA500048BFF0EE667A69EE278A69EE006A18EE52
:10BA6000905A29EE200A69EE250A644543ED036ADF
:10BA700003ED020A43ED010A43F8105B00F09280E7
:10BA800033EE223A74EE824A34EE214A35EE085AF9
:10BA9000002A54D099ED009A23EE096AF5EE005A77
:10BAA000B4EEE56A02EB8407F1EE10FA97ED007A46
:10BAB00039DDB6EE000AB0EE656AF0EE406A67EE78
:10BAC000098AF7EE009AF4EE698AF1EE10FAC8BF1F
:10BAD000F0EE698A80ED146AB0EE667AC0ED108AE5
:10BAE00073EE813AF4EEC74AFDEEE37AF1EE10FA16
:10BAF00017EE905AB8EEE79A05EB852673EEC99AD1
:10BB000008EB46067FF5D4AEB4EEE87AF1EE10FA13
:10BB1000F0EE405AB6EE000A7FF7E2AE80EE077A0A
:10BB200027EE280AE2E6B0EEC60A70EE006AF7EEEB
:10BB3000000A30EEE60AC2E7DFED239A33E70D5D37
:10BB4000AD0701D50026066499ED006A63EE066A2A
:10BB5000F5EE008AF4EEE86AF1EE10FA19DDB6EEC1
:10BB6000000AF0EE686AB0EE407AD0ED100AC0ED3F
:10BB7000146A76EEA09AF7EE007AF4EE679AF1EE88
:10BB800010FAC8BFF0EE679AF0EE698AC0ED109A1D
:10BB9000A6E7F0EEE65A35EEA57AB7EE009A39EE52
:10BBA000470AE2E7BDEC048B80ED045AC0ED033A8E
:10BBB00080ED024AC0ED014A80ED003ABDE8F00395
:10BBC000704700BF2EFFBF4000000000000080440F
:10BBD00000000038141C01083333A340242C010852
:10BBE000D0ED076AD0ED087A9FEDCF7AD0ED093A13
:10BBF000D0ED064A9FEDCD5AD0ED045AD0ED012A82
:10BC00002DE9F00FE2EE267AB6EE003A71EEC31A95
:10BC10002DED068B31EEA16A37EE87AAB8EEE34A26
:10BC2000B4EE476AF1EE10FAB4EEC4AA48BFB0EE23
:10BC3000476AFFEE009AF1EE10FAF7EE00AAC8BFCD
:10BC4000F0EE69AAA4EEAAAA82B0B1EE047AA1EE3F
:10BC5000057A01913AEE031AF0EE006AE2EE269AB6
:10BC6000FDEEC17A90ED029A90ED008AD0ED038A44
:10BC7000DDED104A17EE901AB8EE645A36EE652ADA
:10BC800039EEC93A30EE480A70EEE20A37EE686AD9
:10BC9000002982EE05AAC3EE059AC0EE051A80EED1
:10BCA000851AC6EE05AAC0F219824469A14200DBDA
:10BCB000611E9F4D109E416205EB41118162002E75
:10BCC00000F0FC8192464FF0000900F1500B38EE75
:10BCD000218A72EE812A39EE299A75EE8A5A002A53
:10BCE00000F03081D1ED000ADAED006A91ED022A10
:10BCF00091ED045A91ED064A68EE204AB5EE007ABD
:10BD000026EEA03AF7EE007AF4EE474A28EE026AF1
:10BD100066EE823AF1EE10FAB4EE673ACCBFB0EEBE
:10BD2000470AB0EE640A68EE050AF1EE10FAB4EEC6
:10BD3000476A26EE855AC8BFB0EE673AF1EE10FAB0
:10BD4000F4EE673ACCBFB0EE472AB0EE462A68EE72
:10BD5000044AF1EE10FAF4EE470AC8BFF0EE673A73
:10BD600066EE846AF1EE10FAB4EE675AC8BFF0EEE0
:10BD7000470AF1EE10FAF4EE474AC8BFB0EE675A30
:10BD8000F1EE10FAF4EE676AD8BFB0EE647AF1EE25
:10BD900010FAC8BFF0EE676A80ED140A80ED103A21
:10BDA00080ED152AC0ED113AC0ED160A80ED125A49
:10BDB00080ED177AC0ED136A78EEAA8A5D4EBDEE6B
:10BDC000E84A594614EE104AB8EEC47A04EB8427C8
:10BDD00038EEC70A984606EB470C0425D1ED007AE9
:10BDE00051ED040AB0EEE76A36EE062AB7EE003AE5
:10BDF000F4EEC22AF1EE10FAF6EE003A01F1040177
:10BE000008D433EE422AF4EEC22AF1EE10FAD8BF7B
:10BE1000B0EE622AF4EEC20AF1EE10FA7AD473EEB2
:10BE2000424A30EEC24AC3EEA46AE6EE843A424F7A
:10BE3000DFED420ADFED427A23EEA02AF5EEC05A8A
:10BE4000FDEEC23AF1EE10FA13EE906AC6F309065F
:10BE50000CEB46043CF9166004EE906AB4F90260FB
:10BE600004EE106AB4F90468B4F9024806EE106AE8
:10BE7000F8EEC46A05EE104AB8EEC63A26EEA77A86
:10BE8000B8EEC54AF8EEE44A23EE276AA4EEE77A54
:10BE9000A4EE676AF8EEE33A32EE632A22EE075A1E
:10BEA00062EE066AA4EEA75AE4EE276A76EEC57A39
:10BEB000A0EE275A35DD25EE853A23EE207AFDEEF9
:10BEC000C74A14EE906AB400E619D6ED000A96ED62
:10BED000016AB8EEE44A36EE602A77EE443AE3EEC1
:10BEE000820A013D70EEC57AF2EE006AA5EEA75A0D
:10BEF00025EE265AA8EC015A7FF470AF109909F18B
:10BF00000109894503F110030AF1040A00F0D68003
:10BF1000816ADCE6B6EE007A87EE023A60EE833A9A
:10BF200085E7DFED010ADCE7000000002EFFBF40DF
:10BF30008C660020242C0108141C01080000804499
:10BF400000000038019F17F809805FEA887448D51F
:10BF5000C0EB0B0C00F144040026ACF14405A345F2
:10BF6000C5F3820706643CD02FB3012F1DD0022FEA
:10BF700018D0032F13D0042F0ED0052F08D0062F72
:10BF800002D00026043446644FF0000844F8048BC5
:10BF90004FF0000C44F804CB002544F8045B002764
:10BFA00044F8047B002644F8046B4FF0000844F882
:10BFB000048BA34515D025464FF0000C45F804CB63
:10BFC000203444F81CCCC5F804C044F814CC44F820
:10BFD00010CC44F80CCC44F808CC44F804CCA3456D
:10BFE000E9D191ED007A90ED102A91ED020A90EDE1
:10BFF000113AD1ED046AD0ED123A91ED064A90ED76
:10C00000135A68EE074AF5EE000AF4EE604AF1EEC4
:10C0100010FAC8BFF0EE604A34EE827AF7EE007A8A
:10C0200028EE006AB4EE677AF1EE10FAB4EE606AB8
:10C03000C8BFB0EE677AF1EE10FAC8BFB0EE606A22
:10C0400036EE032A28EE260AB4EE672AF1EE10FA3D
:10C05000B4EE600AC8BFB0EE672AF1EE10FAC8BFAE
:10C06000B0EE600A30EE233A68EE046AB4EE673A46
:10C07000F1EE10FAF4EE606AC8BFB0EE673AF1EE86
:10C0800010FAD8BFF0EE660A70EE853AC0ED144A99
:10C09000F4EE673AF1EE10FAD8BFF0EE637A80ED75
:10C0A000107A80ED156A80ED112A80ED160A80ED78
:10C0B000123AC0ED170AC0ED137A7DE6C0ED045ABE
:10C0C000C0ED038A80ED029AC0ED012A80ED008A5E
:10C0D00002B0BDEC068BBDE8F00F70470021E8E52B
:10C0E000D0ED076AD0ED087A9FEDCF7AD0ED093A0E
:10C0F000D0ED064A9FEDCD5AD0ED045AD0ED012A7D
:10C100002DE9F00FE2EE267AB6EE003A71EEC31A90
:10C110002DED068B31EEA16A37EE87AAB8EEE34A21
:10C12000B4EE476AF1EE10FAB4EEC4AA48BFB0EE1E
:10C13000476AFFEE009AF1EE10FAF7EE00AAC8BFC8
:10C14000F0EE69AAA4EEAAAA82B0B1EE047AA1EE3A
:10C15000057A01913AEE031AF0EE006AE2EE269AB1
:10C16000FDEEC17A90ED029A90ED008AD0ED038A3F
:10C17000DDED104A17EE901AB8EE645A36EE652AD5
:10C1800039EEC93A30EE480A70EEE20A37EE686AD4
:10C19000002982EE05AAC3EE059AC0EE051A80EECC
:10C1A000851AC6EE05AAC0F219824469A14200DBD5
:10C1B000611E9F4D109E416205EB41118162002E70
:10C1C00000F0FC8192464FF0000900F1500B38EE70
:10C1D000218A72EE812A39EE299A75EE8A5A002A4E
:10C1E00000F03081D1ED000ADAED006A91ED022A0B
:10C1F00091ED045A91ED064A68EE204AB5EE007AB8
:10C2000026EEA03AF7EE007AF4EE474A28EE026AEC
:10C2100066EE823AF1EE10FAB4EE673ACCBFB0EEB9
:10C22000470AB0EE640A68EE050AF1EE10FAB4EEC1
:10C23000476A26EE855AC8BFB0EE673AF1EE10FAAB
:10C24000F4EE673ACCBFB0EE472AB0EE462A68EE6D
:10C25000044AF1EE10FAF4EE470AC8BFF0EE673A6E
:10C2600066EE846AF1EE10FAB4EE675AC8BFF0EEDB
:10C27000470AF1EE10FAF4EE474AC8BFB0EE675A2B
:10C28000F1EE10FAF4EE676AD8BFB0EE647AF1EE20
:10C2900010FAC8BFF0EE676A80ED140A80ED103A1C
:10C2A00080ED152AC0ED113AC0ED160A80ED125A44
:10C2B00080ED177AC0ED136A78EEAA8A5D4EBDEE66
:10C2C000E84A594614EE104AB8EEC47A04EB8427C3
:10C2D00038EEC70A984606EB470C0425D1ED007AE4
:10C2E00051ED040AB0EEE76A36EE062AB7EE003AE0
:10C2F000F4EEC22AF1EE10FAF6EE003A01F1040172
:10C3000008D433EE422AF4EEC22AF1EE10FAD8BF76
:10C31000B0EE622AF4EEC20AF1EE10FA7AD473EEAD
:10C32000424A30EEC24AC3EEA46AE6EE843A424F75
:10C33000DFED420ADFED427A23EEA02AF5EEC05A85
:10C34000FDEEC23AF1EE10FA13EE906AC6F309065A
:10C350000CEB46043CF9166004EE906AB4F90260F6
:10C3600004EE106AB4F90468B4F9024806EE106AE3
:10C37000F8EEC46A05EE104AB8EEC63A26EEA77A81
:10C38000B8EEC54AF8EEE44A23EE276AA4EEE77A4F
:10C39000A4EE676AF8EEE33A32EE632A22EE075A19
:10C3A00062EE066AA4EEA75AE4EE276A76EEC57A34
:10C3B000A0EE275A35DD25EE853A23EE207AFDEEF4
:10C3C000C74A14EE906AB400E619D6ED000A96ED5D
:10C3D000016AB8EEE44A36EE602A77EE443AE3EEBC
:10C3E000820A013D70EEC57AF2EE006AA5EEA75A08
:10C3F00025EE265AA8EC015A7FF470AF109909F186
:10C400000109894503F110030AF1040A00F0D680FE
:10C41000816ADCE6B6EE007A87EE023A60EE833A95
:10C4200085E7DFED010ADCE7000000002EFFBF40DA
:10C43000EC630020242C0108141C01080000804437
:10C4400000000038019F17F809805FEA887448D51A
:10C45000C0EB0B0C00F144040026ACF14405A345ED
:10C46000C5F3820706643CD02FB3012F1DD0022FE5
:10C4700018D0032F13D0042F0ED0052F08D0062F6D
:10C4800002D00026043446644FF0000844F8048BC0
:10C490004FF0000C44F804CB002544F8045B00275F
:10C4A00044F8047B002644F8046B4FF0000844F87D
:10C4B000048BA34515D025464FF0000C45F804CB5E
:10C4C000203444F81CCCC5F804C044F814CC44F81B
:10C4D00010CC44F80CCC44F808CC44F804CCA34568
:10C4E000E9D191ED007A90ED102A91ED020A90EDDC
:10C4F000113AD1ED046AD0ED123A91ED064A90ED71
:10C50000135A68EE074AF5EE000AF4EE604AF1EEBF
:10C5100010FAC8BFF0EE604A34EE827AF7EE007A85
:10C5200028EE006AB4EE677AF1EE10FAB4EE606AB3
:10C53000C8BFB0EE677AF1EE10FAC8BFB0EE606A1D
:10C5400036EE032A28EE260AB4EE672AF1EE10FA38
:10C55000B4EE600AC8BFB0EE672AF1EE10FAC8BFA9
:10C56000B0EE600A30EE233A68EE046AB4EE673A41
:10C57000F1EE10FAF4EE606AC8BFB0EE673AF1EE81
:10C5800010FAD8BFF0EE660A70EE853AC0ED144A94
:10C59000F4EE673AF1EE10FAD8BFF0EE637A80ED70
:10C5A000107A80ED156A80ED112A80ED160A80ED73
:10C5B000123AC0ED170AC0ED137A7DE6C0ED045AB9
:10C5C000C0ED038A80ED029AC0ED012A80ED008A59
:10C5D00002B0BDEC068BBDE8F00F70470021E8E526
:10C5E000704700BFFEE700BFFEE700BFFEE700BFE9
:10C5F000FEE700BF704700BF704700BF704700BF35
:10C6000010B502F083FD084800F07AFB074B18686C
:10C6100048B1074CE1698B0605D5A28C0548D1B21B
:10C62000FCF738F9208510BD8C6B00201C6A0020B7
:10C6300000480040346D00202DE9F04F85B003A87C
:10C64000012102F0B1F84FF224410222A248A34C8A
:10C65000A34D01F00DFCA34801F0C6FDA24B002242
:10C6600001212046C3F8DC20C3F8D820C3F8E0102D
:10C67000FCF7D2F9214606469C48FBF7B3FD9C48DF
:10C6800094F862709B4A07702146284600F016FA1B
:10C6900005F19803009321469648944A914BFBF785
:10C6A0006DFF002E00F01181934B9448186003F148
:10C6B00060014FF0000B00244FF07E509962012181
:10C6C0008F4AC3F804B0C3F808B0C3F80CB0C3F87D
:10C6D00010B0C3F82CB0C3F840B0C3F844B0C3F8EE
:10C6E00048B0C3F84CB0C3F850B0C3F854B0C3F866
:10C6F00058B0C3F85CB0C3F880B0C3F884B0C3F8D6
:10C70000A0B0C3F8A4B0C3F8A8B0C3F888B01C6345
:10C710005C639C63DC631866986618679867596663
:10C72000D9665967D967C3F88CB0C3F8ACB0C3F801
:10C73000B0B0C3F8B4B0C3F890B0C3F894B0C3F8C5
:10C74000B8B0C3F8BCB0C3F8C0B0C3F898B0C3F871
:10C750009CB0C3F8C4B0C3F8C8B0C3F8CCB0C3F839
:10C76000D0B0C3F8D4B0C3F8D8B0C3F8DCB0C3F8C5
:10C77000E0B0C3F8E4B0C3F8E8B0C3F8ECB0DFF859
:10C78000C0B1DFF8C0A1C3F81CB04FF03F41DFF8E3
:10C79000B891DFF8B881DFF8B8C1DFF8B8E1594FD8
:10C7A000594EDFF8B4B1196215205C625861C3F8C4
:10C7B00018A05460D4605461C2F80090C2F8088098
:10C7C000C2F810C0C2F818E0504BD461DFF88C9169
:10C7D00017629662C2F830B0DFF88481DFF884C156
:10C7E000DFF884E14A4E4B4FDFF880B14A4D936346
:10C7F000C2F88090494BC2F88880C2F890C0C2F855
:10C8000098E0DFF86CC1DFF86CE1C2F8A860C2F80C
:10C81000B070C2F8B8B04248DFF85C91DFF85C81D4
:10C82000404E414FDFF858B1C2F850C09365C2F88E
:10C8300060E09FED3E0ADFED3E0A5462D46254632D
:10C84000D463C2F88440C2F88C40C2F89440C2F865
:10C850009C40C2F8A440C2F8AC40C2F8B440C2F850
:10C86000BC405464D4645465D465C2F8A000C2F8D6
:10C870004090C2F848804FF014095466DFF80481F4
:10C880002C48D4665467D46796661767C2F878B0A8
:10C89000E960C5F804A02C61C5F80090C5F80880CF
:10C8A00000F060FC244A03A8147054709470D47093
:10C8B000147154719471D47101F08AFF06481F49B4
:10C8C00001F0EEFA05B0BDE8F08F0A480324FBF74B
:10C8D00069FE85F8B440E7E6006B0020FC6E00209E
:10C8E0008C6B0020E46A0020186E0020586D002038
:10C8F000886B0020346D0020446C00200AD7233C54
:10C90000246A0020D59F00084D9C0008E1C0000863
:10C91000953F0020352E00203C710020D9140020C6
:10C9200029360020050B00201D4D002000247447EF
:10C93000ACC5273AF46F0020F06D0020A1970008E5
:10C940000000A841CDCC4C3D45B4000879B00008AA
:10C9500011B8000831980008E1BB00083D590020DB
:10C96000A9530020D15E00200100002041260020B4
:10C97000991A002001490020FD0F00204D1F0020C2
:10C98000250500200000A04170B5FFF755FE134EAD
:10C99000134CD4F8E0103368124D1348D4F8DC205F
:10C9A000002B18BF0546914214D0D4F8E0304FF068
:10C9B0006C0C0CFB03400821A847D4F8E000411C94
:10C9C00001F00102C4F8E020D4F8E000D4F8DC3033
:10C9D0009842EAD1054800F0A7FADAE71C6A00207D
:10C9E000186E00205DA300084D8700088C6B0020A6
:10C9F00038B51C4C1C491D48224602F0A1FE2246B7
:10CA00001B491C4802F09CFE1B4B1C491C4822463B
:10CA100000251D6002F094FE22461A491A4802F0D1
:10CA20008FFE224619491A4802F08AFE2246194909
:10CA3000194802F085FE22461849194802F080FE86
:10CA400022461849184802F07BFE2246174918482A
:10CA500002F076FE224617481749BDE8384002F03A
:10CA60006FBE00BFC06300208D970008586D002086
:10CA700081970008006B00201C6A00209197000835
:10CA8000346D002085970008E46A0020799700083B
:10CA90003C7100207D970008186E002095970008D3
:10CAA000446C002099970008F46F002089970008D3
:10CAB000FC6E00208C6B00209D970008F8B50446A2
:10CAC0008C300D46164601F089FC04F1980001F007
:10CAD0000FFE0023394AC4F8AC50C4F8B06084F8A3
:10CAE000B430374813604FF4005102F0E3FA70B9E4
:10CAF000D4F8AC1091F86370012F16BF012781F8AC
:10CB0000630081F86370D4F8AC00FCF7B7FC04F163
:10CB1000A80004F1AB0E6FEA000C04F1A906002591
:10CB2000F4447645C4F888500CF00703C4F88450E8
:10CB3000C4F89C50C4F8A050C4F8A45084F8A8507D
:10CB40003AD013B3012B1BD0022B16D0032B11D0DC
:10CB5000042B0CD0052B07D0062B1CBF357004F11D
:10CB6000AA06002406F8014B002206F8012B00213A
:10CB700006F8011B002706F8017B002006F8010BD0
:10CB8000002506F8015B764515D0B44600230CF865
:10CB9000013B083606F8073C8CF8013006F8053CE6
:10CBA00006F8043C06F8033C06F8023C06F8013C93
:10CBB0007645EAD1F8BDF8BDF8BD00BF5871002038
:10CBC00000080048124B53F82100C2B1114B1A68FB
:10CBD0001B68C3F344130F2B88BFC3F11F0302F07C
:10CBE0000F0288BFDBB239B99810C11C9142ACBFAB
:10CBF0004FF47F4000207047012901D1064870475B
:10CC00000229FCD1002A14BF00204FF47F00704796
:10CC1000488C01085871002000FFFF00F8B500F1B2
:10CC20008C050446284601F029FC314A94F8B430BA
:10CC30001168C1F30026032B18D8DFE803F02F2575
:10CC40001B0210682B4F2C494FEA102CA7FB0C0E2F
:10CC50004FEA5E0202EB4203C3EB0C0651F82600DA
:10CC6000C4F88C00C4F89000C4F89400284601F081
:10CC70000DFCF8BD214F002E08BF0027C4F89470AA
:10CC8000284601F003FCF8BD1C49002E08BF002116
:10CC9000C4F88C10284601F0F9FBF8BDD4F8AC605C
:10CCA00096F8632096F86010B2F1010CDCF10003F5
:10CCB00053EB0C073A462046FFF784FFC4F8900078
:10CCC00096F861103A462046FFF77CFFC4F88C00C6
:10CCD00096F86200C11C01F003013A462046FFF7B6
:10CCE00071FFC4F89400284601F0D0FBF8BD00BFE6
:10CCF00058710020ABAAAAAA488C010800FFFF00C7
:10CD00002DE9F04F464D2B6883B0591C00F1980B6C
:10CD100004462960FFF782FF584601F021FD2346B3
:10CD200021460022181B10F80B60802E59D056BBEC
:10CD300093F8A870002F4AD12F68D1F89C60DFF8D3
:10CD4000E090BF1BB7F5966F009740DDD4F8886080
:10CD500004F1040808EBC60C771C4FF0040A08F82D
:10CD600036A007F00F07009EACF80220CCF8046054
:10CD7000C4F88870D9F8007027604FF0010E83F86E
:10CD8000A8E010F80B607F2E21D193F8A800F0B92D
:10CD90002F68D4F88800D1F89C6004F1040C0CEBE7
:10CDA000C00E07F10109471CC6EB09084FF0040A41
:10CDB00007F00F060CF830A0CEF80480AEF8022081
:10CDC000C4F8886028682060012783F8A8700132C1
:10CDD000032A01F1040103F10103A3D103B0BDE86B
:10CDE000F08FD4F8886004F1040808EBC60C771CB7
:10CDF00007F00F094FF0040A002708F836A0ACF836
:10CE00000220CCF80470C4F888902E68D5F800E0B1
:10CE10002660C1F89CE083F8A87010F80B6086E7E4
:10CE20005871002038B590F8B430044653B94A68B8
:10CE3000B2F5966F0ADB488880BB94F89A50002DB3
:10CE40005DD038BD012B2CD0022B37D04D88D4F8C3
:10CE5000AC00012D10D03ED3022D09D190F862C054
:10CE60000CF1010E0EF0030380F86230D4F8AC0030
:10CE7000BDE83840FCF702BB90F860E0294A0EF1AB
:10CE8000010582FB051C0CEB4C03E91A80F86010CD
:10CE9000D4F8AC00BDE83840FCF7F0BA02282BD03B
:10CEA00038BD1946D0F8B000B7EE000AF0EE080A17
:10CEB000FBF754FC022184F8B41038BD1946D0F8B1
:10CEC000B000B7EE000AF0EE080AFBF747FC0020BE
:10CED00084F8B40038BD90F86110124A4D1C82FBF2
:10CEE000051C0CEB4C03E91A80F86110D4F8AC0077
:10CEF000BDE83840FCF7C2BA94F8982082B9012501
:10CF000084F8B450D4F8B0000021B7EE000AF0EE77
:10CF1000080AFBF723FC84F8AA5084F8A850BFE75E
:10CF200038BD00BF5655555530B5D0F88820D0F8DB
:10CF300084300446D01A83B0020718BF6D4609D169
:10CF400023E0D4F88800D4F88420C2EB000C5FEA18
:10CF50000C731AD0D4F8843004EBC30101F1040C33
:10CF60009CE8030085E803009DF80020581C00F0B1
:10CF70000F03042AC4F88430E3D101990029E0D0DA
:10CF800020466946FFF74EFFDBE7054D2368296819
:10CF9000C81AB0F57A7F01D92A68226003B030BD83
:10CFA0005871002090ED517ADFED6C7A87EE870A98
:10CFB00070B401230026C0F8283100F1040C00F100
:10CFC000C401C0F81061F7EE006AC6EE805AB5EEF3
:10CFD000006AB6EE005AFCEEC74A67EE060A27EE74
:10CFE000051A14EE902ABCEEE02AFCEEC12AFDEEF2
:10CFF000E51A02EB420212EE105A12EE904AC0ED10
:10D00000487A80ED460A80ED450A80ED470AC0ED7A
:10D010004B6AC0ED4C6AC0ED491AC0F838214FF098
:10D020007C56CCF80050CCF80440CCF808600CF1E9
:10D030000C0C6145F3D10E4600F1E804621A00239E
:10D040000021474DC0F80C3101604160816046F815
:10D05000045B131FB442C3F3820237D00AB3012A20
:10D060001AD0022A15D0032A10D0042A0BD0052A80
:10D0700006D0062A18BF46F8045B394D46F8045B13
:10D08000374946F8041B364B46F8043B344A46F809
:10D09000042B334D46F8045B314946F8041BB44277
:10D0A00014D0B4462E4B4CF8043B203646F81C3CBA
:10D0B000CCF8043046F8143C46F8103C46F80C3CDA
:10D0C00046F8083C46F8043CB442EAD190ED513AA7
:10D0D000F6EE003A23EE234A254600F58676321B0B
:10D0E000A5EC014A111FAE42C1F3820430D0DCB17D
:10D0F000012C15D0022C11D0032C0DD0042C09D0FA
:10D10000052C05D0062C18BFA5EC014AA5EC014A58
:10D11000A5EC014AA5EC014AA5EC014AA5EC014A9F
:10D12000A5EC014AAE4213D02B46A3EC014A2035B0
:10D1300005ED074A83ED014A05ED054A05ED044A70
:10D1400005ED034A05ED024A05ED014AAE42EBD179
:10D150000026C0F8C46070BC704700BFCDCCCC3D89
:10D1600000004842F7EE007A87EEA01AC0ED4F0AA1
:10D1700080ED501A80ED510AFFF714BF0368D0ED1F
:10D18000037A03EB430100EB8102F7EE006A92EDB4
:10D19000037A36EEC06A67EE060AF4EEE70AF1EEAD
:10D1A00010FA00F2EA8030EE260A27EE001A9FED10
:10D1B000780AF4EEC17AF1EE10FA00F2E180D0EDD7
:10D1C000061AF4EEE10AF1EE10FA37EE802A00F2C8
:10D1D000DE80B4EEE11AF1EE10FAC0F2D880D0EDA4
:10D1E000095AF4EEE50AF1EE10FA72EE212A00F285
:10D1F000CE80B4EEE51AF1EE10FAC0F2C88090EDE0
:10D200000C5AF4EEC50AF1EE10FA32EEA53A00F22D
:10D21000BE80B4EEC51AF1EE10FAC0F2B880D0EDBF
:10D220000F3AF4EEE30AF1EE10FA33EE054A00F29B
:10D23000AE80B4EEE31AF1EE10FAC0F29E80D0EDAB
:10D24000124AF4EEE40AF1EE10FA74EE237A00F2D8
:10D250009480B4EEE41AF1EE10FAC0F28E80D0EDB4
:10D26000156AF4EEE60AF1EE10FA37EEA47A00F24F
:10D270008480B4EEE61AF1EE10FA7EDB90ED186AC7
:10D28000F4EEC60AF1EE10FA77EE261A75D8B4EE6F
:10D29000C61AF1EE10FA70DB90ED1B2AF4EEC20A0A
:10D2A000F1EE10FA71EE865A67D8B4EEC21AF1EEBA
:10D2B00010FA62DBD0ED1E2AF4EEE20AF1EE10FA6B
:10D2C00035EE825A59D8B4EEE21AF1EE10FA54DB78
:10D2D00090ED213AF4EEC30AF1EE10FA75EE223A1F
:10D2E0004BD8B4EEC31AF1EE10FA46DB90ED244AA7
:10D2F000F4EEC40AF1EE10FA73EE834A3DD8B4EEB0
:10D30000C41AF1EE10FA38DBD0ED276AF4EEE60A23
:10D31000F1EE10FA34EE847A2FD8B4EEE61AF1EE7C
:10D3200010FA2ADBD0ED2A7AF4EEE70AF1EE10FAD1
:10D3300037EE266A21D8B4EEE71AF1EE10FA1CDBBC
:10D34000D0ED2D1AF4EEE10AF1EE10FA36EE272AAE
:10D3500013D8B4EEE11AF1EE10FA0EDBD0ED305A2C
:10D36000F4EEE05AF1EE10FA72EE212A05DBF4EE4B
:10D37000C15AF1EE10FA04D970479FED050A7047C3
:10D38000704775EEA20A9FED030A20EE800A7047EF
:10D39000000000000000803D70B4046804EB44010C
:10D3A00000EB8105D5ED027A0022B8EE670A00F1A4
:10D3B000E8039446B3EC017ADFED665A53ED0A6A4E
:10D3C0009FED656A77EE400AF0EE664AD0EEA04A1D
:10D3D000F5EEC04AF1EE10FAC8BFB0EE656AE6EEAF
:10D3E000246A43ED0A6A002A00F0928004F11106D3
:10D3F000B11A01F00F0505EB450600EB8601D1EDF2
:10D40000021AB8EE612A03ED012A1D46B5EC014A65
:10D410009FED505A55ED0A7ADFED4F5A34EE407ABF
:10D42000B0EE676A00EB8C0697EE076AD6ED314ADC
:10D43000F4EE646AF1EE10FAB5EEC06A48BF9446A5
:10D44000F1EE10FAD4BFF0EE656AF0EE456AE6EE52
:10D45000867A013245ED0A7A70D004F111018E1AF4
:10D4600006F00F0101EB410600EB860191ED021A77
:10D47000F8EE411A45ED011AD3ED013A9FED354A18
:10D4800013ED087A9FED345A083373EEC05AB0EEAC
:10D49000476A00EB8C0595EEA56AD5ED314AF4EEAE
:10D4A000647AF1EE10FAB5EEC06A48BF9446F1EE28
:10D4B00010FAD4BFF0EE457AF0EE447AA7EE867A01
:10D4C000511C03ED0A7A2ED004F11106751A05F0ED
:10D4D0000F0606EB460500EB8506D6ED026AB8EEB0
:10D4E000661A03ED011A00EB8C0595ED313AB4EEA6
:10D4F000437AF1EE10FA02F1020248BF8C46092A83
:10D500007FF458AF00EB8C0090ED3A0A70BC704786
:10D51000D0ED3A2A30EE623AF6EE003AE3EE232AF4
:10D52000C0ED3A2A71E7D0ED3A1A30EE612AF6EEF4
:10D53000002AE2EE221AC0ED3A1AD4E790ED3A2A18
:10D5400070EE422AB6EE003AA2EE832A80ED3A2A25
:10D5500092E700BF3333333FCDCC4C3E82B02DE950
:10D56000F0472DED028B04460B930D9D0E9F0F9EF1
:10D57000002940F03E819DED0B8ADDF830A0002EA1
:10D5800000F02B810368B0464FEA430E61E00EEBDA
:10D59000030204EB8201D4ED4D2A8A6894ED443AEB
:10D5A000D4ED4C5A511C0EEB030004EB800CCCF86C
:10D5B0000810F10704D5DCF80420511CCCF8041045
:10D5C000710774D5D4ED438AF5EEC08AF1EE10FAF6
:10D5D0006DDD94ED4A4A9FEDD27ADCED017AF8EEEA
:10D5E000C43AF7EE006A72EEE34A76EEE80A34EEE9
:10D5F000A61AF8EE671A31EE430A21EEA02AB4EE1D
:10D60000470AF1EE10FA58BFB0EE407A28EE876A6A
:10D6100086EE025A84ED465A35EE033AB4EEE23A0B
:10D62000F1EE10FAA8BFB0EE623A63EE255AA8BF39
:10D63000C4ED442AFDEEE52AB8BF84ED443AF8EE85
:10D64000E28AB8F1010875EEE87AE7EC017A00F0B9
:10D65000C48015F8016BB20799D50EEB030104EBFA
:10D66000810909F1040CD4F83821DCF80410914246
:10D6700020D302EE90AA9FEDAA3AC4F828A1F8EEB2
:10D68000E22A8800C4F8380184ED4C8A84ED443ADB
:10D69000C4ED4D2AF0EE485A0EEB030C04EB8C0956
:10D6A0000022C9F80420C9F8082001217BE794ED85
:10D6B000465AB1E704EE901A94ED507AF8EE647A87
:10D6C000F4EEC77AF1EE10FA3AD5B7EE002A82EE00
:10D6D000270AD4F82801421EC4F8282184ED470AFD
:10D6E00084ED460A002A56D100EE90AA9FED8C3AAE
:10D6F000C4F828A1F8EEE02A84ED4C8A84ED443A7F
:10D70000C4ED4D2AF0EE485AB1EE001AC1EE001AEF
:10D71000591C01F00F0323604FEA430E94ED510AA8
:10D72000B0EE082A20EE026AF4EE461AF1EE10FA84
:10D7300048BFF0EE461ABCEEE15A84ED4E5AABE714
:10D74000D9F804909FED740A06EE909AF8EE660AF6
:10D75000204680EEA71A8CED021AFFF70FFDB9F1F3
:10D760001F0F9CBF0023C4F80C31204688BF84EDF6
:10D77000430AFFF711FEF7EE001A81EE800AD4F893
:10D7800028012368421EC4F8282184ED470A84ED4D
:10D79000460A002AA8D004EE102AD4ED4D2A94EDB2
:10D7A000443A9FED5E6A94ED465AD4ED4C5AF8EE39
:10D7B000C43AF7EE008A72EEE34A74EEC37A37EEAB
:10D7C000A87AB4EEC67AF1EE10FA48BFB0EE467A07
:10D7D00065EE076AC4ED466A96E794ED468A94EDD5
:10D7E0004C7A28EE070ABDEC028BBDE8F04702B088
:10D7F0007047DDED0B0ADDF830A0002E00F06D81E2
:10D80000036805EB060E4FEA43084EE008EB0309F8
:10D8100004EB8900D4ED475A8168D4ED452A94ED94
:10D82000443AD4ED484A01F1010908EB030104EB45
:10D8300081005FEACC71C0F8089002D541680131DF
:10D84000416075EEE28AE8EEA42AC4ED452A002A7A
:10D850005FD0B7EE008AC8EE222AD4F82411FDEE7C
:10D86000E27A17EE90CAC1EB0C000028B8BF404224
:10D87000012840F3F880B8EEE74AC4ED497AC8EED3
:10D88000042AC4ED462A32EE833AF7EE006AB4EE7B
:10D89000E63AF1EE10FAA8BF33EE663A754584ED2C
:10D8A000443AA7EC013A00F0188115F801CB5FEA81
:10D8B0008C70ABD508EB030004EB8009D4F8381169
:10D8C000D9F8089089453BD305EE90AA9FED143A0C
:10D8D000D4ED452AD4ED484AC4F828A1B8EEE55A5B
:10D8E0004FEA8900D4ED475AC4F83801C4ED4C0A18
:10D8F00084ED443A84ED4D5A08EB030104EB8100BA
:10D900004FF00009C0F80490C0F808904FF00109EA
:10D910008BE7C4ED462AB6E7CDCC4C3D0AD7233C75
:10D9200000000000A4707D3FAE47813F5C8F823FC6
:10D930000000004248E17A3FACC52737CDCCCC3D52
:10D94000D4F82801D4ED4C3AC4ED4C0A04EE109AF8
:10D95000411EC4F82811B8EE441A002900F0868050
:10D9600094ED443A5FED125AD4ED487A1FED137AE4
:10D9700025EEA78AB7EE004AC8EE206AC4EE011A67
:10D9800074EE664AF4EEC74AF1EE10FA08D41FEDC1
:10D990001A7AF4EE474AF1EE10FAD8BFB0EE647A84
:10D9A00021EEA00A31EEA16A1FED205AD4ED452ADE
:10D9B00060EE075AB4EE002A76EE058AF4EEC25AFB
:10D9C000F1EE10FA68EEA27ACCBFF0EE425AB1EE58
:10D9D000000AF4EEE75AD4BF80EE250A1FED2C0AA8
:10D9E000C4ED475AF1EE10FA38DC1FED2E8A38EEFE
:10D9F000464A62EE846AF4EEE65AF1EE10FA2DD44D
:10DA0000F4EE603AF1EE10FA28D15FED353A5FEDB1
:10DA1000351A21EE231AB4EEE11AF1EE10FAC8BF5E
:10DA2000B0EE611AF0EE414A84ED481A94ED517A55
:10DA3000B0EE082A27EE026A0133B4EE406AF1EE36
:10DA400010FAD8BFB0EE406ABCEEC60A03F00F036E
:10DA5000236084ED4E0A4FEA43084DE7F7EE004A93
:10DA6000C4ED484AE2E7D4ED462A0CE706EE906A98
:10DA7000F8EE664AF7EE001A34EEA40AC4F828A1BC
:10DA800080EE012A22EE205AB4EEE15AF1EE10FAAD
:10DA900008DBB7EE006A35EE465AB4EEC65AF1EE30
:10DAA00010FAF6DA94ED443A73EE455AF6EE002A8F
:10DAB000F4EEE25AF1EE10FAC4BFF7EE002A75EE6A
:10DAC000E25AFEEE008AF4EEE85AF1EE10FA44BF94
:10DAD000F7EE008A75EEA85A46E7BDEC028B94ED8E
