:020000040800F2
:1000000000800020A5240008CD020008D1020008CD
:10001000D5020008D9020008DD0200080000000037
:10002000000000000000000000000000E1020008E5
:10003000E502000800000000E9020008ED020008E7
:10004000F5240008F5240008F5240008F52400082C
:10005000F5240008F5240008F5240008F52400081C
:10006000F5240008F5240008F5240008F52400080C
:10007000F5240008F5240008F5240008390A0008D2
:10008000F5240008F5240008F5240008F5240008EC
:10009000F5240008F5240008F5240008F5240008DC
:1000A000F5240008F5240008F5240008F5240008CC
:1000B000350D0008F5240008F5240008F524000893
:1000C000F5240008F5240008F5240008F5240008AC
:1000D000F5240008F5240008F5240008F52400089C
:1000E000F5240008F5240008F5240008F52400088C
:1000F000F5240008F52400080000000000000000BE
:100100000000000000000000F5240008F5240008AD
:100110000000000000000000F5240008F52400089D
:10012000F5240008F5240008F5240008F52400084B
:10013000F5240008F5240008F5240008F52400083B
:10014000F52400080000000000000000000000008E
:10015000000000000000000000000000000000009F
:100160000000000000000000F5240008F52400084D
:10017000F524000800000000F5240008000000003D
:10018000F52400080000000000000000000000004E
:1001900010B5054C237833B9044B13B10448AFF3C1
:1001A00000800123237010BD100200200000000019
:1001B0009001000808B5064B1BB106480649AFF38D
:1001C00000800648036813B1054B03B1984708BD8A
:1001D000000000009001000814020020100200201E
:1001E00000000000704700BF704700BF704700BFAD
:1001F000704700BF704700BF704700BF2D482DE912
:10020000F84341882C4DB0F800902C4CC1F50048C3
:1002100000F0F0FC2E682A4A27681068C6EB063307
:1002200003EB090C4FEA2C364FEA6C3101FB06F95F
:100230004FEA695303F1800101FB08F828F30F2C02
:100240008CEAEC73A3EBEC73013798422E602760C5
:1002500003DBC0EBC03E7344DB131A4D1360CCF5D7
:10026000FF442A6804F17F0080B2FAB9164FD7F82C
:10027000881CD7F88C5C01F2FF344FEAAC19621B82
:1002800009F50068C2F309061FFA88FC0EB90423B9
:100290003B70D7F88C1C4D1C07EB410EC5F30904CD
:1002A000C7F88C4CAEF888C4BDE8F883561E2E60A3
:1002B000BDE8F883580F0020640F0020600F002075
:1002C0006C0F0020040000202C020020704700BFAB
:1002D000FEE700BFFEE700BFFEE700BFFEE700BF8E
:1002E000704700BF704700BF704700BF38B5414C32
:1002F000414D01F069FF23682846591C216000F038
:1003000049FE68787F2802D13C4D01222A703C4D7D
:10031000284600F0C7FD3B4B197803290ED03A4818
:1003200021680268B2F5005F01F00F0C18DABCEB2F
:10033000622FACBF00214FF47F4129601B78032B53
:100340000AD8DFE803F03723021A226812F480701B
:100350004AD128606860A860294800F0ABFD38BD2C
:10036000B2F5804F38DAA2F5005E2848BCEB6E2F5C
:10037000C8BF4FF47F402860E0E74FF47F44204837
:100380002C606C60AC6000F095FD38BD216823687E
:100390001B4811F0200F0CBF00244FF47F4413F0D2
:1003A000200F0CBF4FF47F4200226C60AA6000F067
:1003B00081FD38BD2068154B216810F0800F0CBFFF
:1003C00000241C4611F0800F18BF00230C486C60FD
:1003D000AB6000F06FFD38BDB2F5C04FB4BF0B4A43
:1003E0004FF47F022A60A9E74FF47F00286068601D
:1003F000B1E700BF98180020680F00208C10002083
:100400004C0F0020480F00206C0F002000FFFF0061
:100410002DE9F0414B4C0646884601F03FFC206830
:1004200001F0DEFCB8F1000F00F08A8008F1FF3720
:10043000C7F3820720680025002F77D0316801F0CC
:10044000EDFC206804252844A845206078D9012FB8
:100450006CD0022F2AD0032F21D0AF4218D0052F05
:100460000FD0062F06D0715901F0D8FC206828441F
:1004700020600825715901F0D1FC20680430043552
:100480002060715901F0CAFC2168081D0435206004
:10049000715901F0C3FC2268101D043520607159A8
:1004A00001F0BCFC2368181D04352060715901F06F
:1004B000B5FC2768381D0435206037E0715801F01D
:1004C000ADFC236805F1080C181D206056F80C10CF
:1004D00001F0A4FC276805F10C01381D206071585B
:1004E00001F09CFC206805F1100204302060B15836
:1004F00001F094FC276805F11403381D2060F158C1
:1005000001F08CFC216805F11802081D2060B1582B
:1005100001F084FC206805F11C0704302060F159CB
:1005200001F07CFC2368181D20352060715901F012
:1005300075FC2068291D021D884510462260BDD823
:10054000BDE8F0815C0F0020F8B5164D164C174E33
:1005500028464FF47A71012201F06EF80822134602
:1005600020464FF0005100F089FDD4F8883CC4F8D3
:100570008C3C0F480F4AD4F8107D0F49C4F8147D05
:100580004FF0100C002385F80CC1A4F88434A3604C
:100590002370A36123612B70A5F80E3133800370A3
:1005A0001160F8BD740F00202C020020700F002095
:1005B000480F00205C0F00200080000810B582B0BA
:1005C000002101A800F00AFD0D4C0E4800F01AFCB5
:1005D0000D4800F0A7FC4BF68031204600F012FBDE
:1005E0000A4800F041FA01A800F00CFD0121084B77
:1005F00023600A464FF0804001F036FF02B010BD84
:10060000440F00204C0F0020680F0020580F0020DE
:10061000FD0100082DE9F04F83B0FFF7CFFFFFF792
:1006200093FF4FF09040042101F09EFDE0B96D4C26
:10063000DFF8CC812278DFF8CC916B4E694B042A2D
:1006400034D14FF0010A0025D4F8140DD4F8102D40
:10065000644FC2EB000B5FEA4B6314D0BAF1000F9A
:1006600014D16248002D3FD0614800F0AFFA4FF03E
:1006700080400121002201F0F7FE01F065F95D489C
:1006800001F09AF9FEE7BAF1000F09D00221002328
:1006900088F80010337030780028FCD0FFF754FF42
:1006A000002DE1D122784F4B042ACAD0D3F88C0C0C
:1006B000D3F8881C451AC5F309071F2F40F28F8015
:1006C000D4F88C1CD4F8882C464B8D1AC5F3090736
:1006D0001846002F00F083801978002977D001296F
:1006E00079D000F0F5FDEBE7D7F8101D07EB010C12
:1006F0004A1C02F07F03C7F8103D9CF8901C01F0E3
:1007000003F8871E032F9FD8DFE807F0043A3A0268
:10071000012599E7B9F800E03749DFF8D0B0CDF806
:1007200004E00EF0070001EB002001274FF4807277
:100730000BF1010188F8007001F01AFFDDF804C028
:100740000CEB070293B213F00702A9F800301AD09D
:1007500000232A49D4F8107D8BF8003010220320A2
:10076000ABF80E31C4F87C34A4F884348BF80C2137
:10077000C4F8147D2070C4F87814C4F8741463E7C6
:100780004FF0010A60E71E4B1B48032119704FF41C
:1007900000610192FFF73CFED4F8882CC4F88C2C41
:1007A0001749019AD4F8103DC4F8143D4FF0100CCD
:1007B00002208BF80020ABF80E21A4F88424A2605C
:1007C000A26122618BF80CC10F7020703CE71846C3
:1007D00000F01CFD74E7184600F046FD70E74FF08E
:1007E000000A30E72C0200208C100020740F00203B
:1007F000580F0020008000089010002000FCFFFF30
:10080000480F0020700F002010B5104C10491148FF
:10081000224601F071FE22460F49104801F06CFE9D
:1008200022460F490F4801F067FE22460E490F4845
:1008300001F062FE22460E490E4801F05DFE22469E
:100840000D480E49BDE8104001F056BE00000020E2
:10085000F1010008440F0020ED010008580F0020AE
:10086000F50100084C0F0020F9010008680F002076
:10087000E5010008740F00202C020020E9010008A7
:10088000F0B5044683B00E4690E80A0068469847E3
:100890002568EB0006FB03F0011D04EB4104002D6D
:1008A00000F0C8809DE8480006F1140203EB420EF8
:1008B000F44626463CF8040F2346071247F48051BD
:1008C000020226F8101B23F8022FBCF810000712B2
:1008D00047F49051020226F80C1C9A80BCF82000C4
:1008E000071247F4A051020226F8081C1A81BCF82E
:1008F000300007124FEA002C012047F4B051A84203
:1009000005F1FF3726F8041C0EF10602A3F80CC00F
:1009100006F1100107EA000704F1120300F08A80D3
:1009200057B31088061246F4805C070221F810CCF9
:100930001F80108A061246F4905C070221F80CCC46
:100940009F80108C061246F4A05C070221F808CCA8
:100950001F81128E101240F4B05602204FEA022C72
:10096000A84221F8046C0EF10802A3F80CC001F1B2
:10097000100104F122035DD01488271247F4805E31
:10098000260221F810EC1E80B2F810C04FEA2C2489
:1009900044F490574FEA0C2621F80C7C9E80B2F864
:1009A00020E04FEA2E2444F4A0574FEA0E2621F807
:1009B000087C1E81B2F830C04FEA2C2444F4B057B2
:1009C0004FEA0C2621F8047C9E81B2F802E04FEA3F
:1009D0002E2444F4805721F8107B4FEA0E261E8205
:1009E000B2F812C04FEA2C2444F490574FEA0C2678
:1009F00021F80C7C9E82B2F822E04FEA2E2444F4C7
:100A0000A0574FEA0E2621F8087C1E83B2F832C0A8
:100A100002304FEA2C2444F4B0574FEA0C26A84287
:100A200021F8047C02F104029E8301F1100103F11C
:100A30002003A1D103B0F0BD094A13684FF4C021CF
:100A4000516013F4003106D15B0300D470470548B0
:100A50000068FFF715BF034A01211068FFF710BFB8
:100A600000000240901800202DE9F041012192B0D1
:100A700007464FF4007001F021FC4FF4404001F0B4
:100A800003FC4FF40030012101F00AFC4FF48020F8
:100A9000012101F005FC0120014601F001FC0024C8
:100AA0000323022601A94FF0904001258DF808305C
:100AB00001968DF80B408DF80A4001F0E3F901A989
:100AC0003E48019501F0DEF9382201A94FF090402F
:100AD00001928DF808508DF80A408DF809608DF864
:100AE0000B4001F0CFF92A464FF09040082101F069
:100AF00041FB32464FF09040102101F03BFB224673
:100B00004FF09040202101F035FBDFF8BC802C48ED
:100B100008974FF0800C4FF4807E4FF40053202252
:100B20004FF4806707A9CDF830C0CDF834E01093BA
:100B30000F920E970994ADF828600B941194CDF89C
:100B40001C8001F06FF829461D4801F099F84FF418
:100B500060274FF400621B48059203A98DF80D40F1
:100B60008DF80C508DF81860049700F0BDFF2946F1
:100B70002A461448062300F0EFFF324611480821A8
:100B8000062300F0E9FF0F48294600F0CFFF0D488B
:100B900000F0DCFF0B4801F041F80028FAD10948C9
:100BA00000F0CEFF074801F035F80028FAD10548DB
:100BB000012101F025F812B0BDE8F08100040048E1
:100BC00008000240002401404C24014010B5074CAD
:100BD0000021204601F014F82046002100F0A6FF75
:100BE00003480021BDE8104001F04AB8002401404C
:100BF00008000240024B9A6842F4A00098607047D7
:100C0000002401402DE9F047474BDFF8249118609C
:100C10008CB08A464FF40030012101F041FB0CAF4B
:100C20004FF48040012101F057FB4FF4006047F87A
:100C3000280D00240125022639464FF090408DF8FA
:100C40000D604FF4A0688DF80C508DF80E408DF8B3
:100C50000F4001F017F94FF09040082105228DF860
:100C60000C608DF80D608DF80E408DF80F40CDF8BA
:100C7000088001F085FA05224FF090400A2101F02A
:100C80007FFA39464FF0904001F0FCF84FF4827E35
:100C90004FF4706C4FF400720723484607A9ADF873
:100CA0001EE0ADF820C0ADF82620ADF82C30ADF830
:100CB0002260ADF81C40ADF82440ADF82840ADF8F6
:100CC0002A4001F017FB4846294601F04FFB284611
:100CD000294601F001FB1549ADF8104091FBFAF7E8
:100CE0004FF0804004A9ADF81840ADF812408DF8DF
:100CF0001A40059701F04AFB29464FF0804001F069
:100D0000A3FB404601F070FA1C2601A88DF80540AF
:100D10008DF806408DF807508DF8046001F06EFAEA
:100D20000CB0BDE8F08700BF9418002000A24A0470
:100D30000038004038B54FF08040012101F0A0FBA1
:100D4000002859D04FF08040012101F0A7FB2B4B28
:100D50004FF0904418684FF400650168A56188471A
:100D6000021242F48051264B25858CB29C8100BF33
:100D700000BF00BF00BF00BF00BF00BF00BF00BF7B
:100D800000BF00BF00BF00BF00BF00BF00BF00BF6B
:100D900000BF00BF00BF00BF00BF00BF00BF00BF5B
:100DA00000BF00BF00BF00BF00BF00BF00BF00BF4B
:100DB00000BF00BF00BF00BF00BF00BF00BF00BF3B
:100DC00000BF00BF00BF00BF00BF00BF00BF00BF2B
:100DD00000BF00BF00BF00BF00BF00BF00BF00BF1B
:100DE00000BF00BF00BF00BF00BF00BF00BF4FEA91
:100DF000002C1FFA8CF0988138BD00BF9418002099
:100E000000380040F0B5012183B0254E07464FF46D
:100E1000802001F045FA4FF48000012101F040FAF2
:100E2000F088B2883389344640EA020141EA03057A
:100E300054F80C0B1FFA85FE694600254FF0010C93
:100E40000222CDF800E08DF804C08DF805208DF861
:100E500006508DF8075001F015F8E188A388B4F822
:100E600008C0206841EA030444EA0C0293B26946D0
:100E7000009301F007F8B6F81EC0B48B328CB0694D
:100E80004CEA040646EA02039CB26946009400F06C
:100E9000F9FF47F8045B47F8045B3D6003B0F0BD21
:100EA00094250008002340F8043B40F8043B03600D
:100EB000704700BF0368194A13F4000F4FF0200178
:100EC00014BF9161118513F4004F144B4FF0400291
:100ED00014BF9A611A854368114A13F4000F4FF04A
:100EE000800114BF9161118513F4004F0C4B4FF03A
:100EF000400214BF9A611A858368084A18024FF0AD
:100F0000080106484CBF9161118513F4004F4FF062
:100F1000100314BF83610385704700BF00040048BD
:100F20000014004870B5012182B005464FF400302E
:100F300001F0B6F94FF40020012101F0B1F9144C91
:100F40000023A288E05800924FF0010C6946022667
:100F50008DF804308DF806308DF807C08DF80560E7
:100F600000F090FFA189A0680091694600F08AFF17
:100F7000A38A20690093694600F084FF2846FF2574
:100F800000F8015B00F8015B057002B070BD00BFA6
:100F9000B8250008F8B5104C06460546A18820681B
:100FA00016F8037B01F0E0F840EA470005F8010B72
:100FB000A068A1892F7801F0D7F840EA470105F829
:100FC000011B2069A18A2D7801F0CEF840EA450284
:100FD00006F8012CF8BD00BFB825000808B50029A7
:100FE00014BF4FF4004100214FF0006001F042F9BE
:100FF00045F2555001F0DCF80220BDE8084001F050
:10100000DDB800BF074B0848084A10B4F0245A6006
:10101000002180F82340072299605DF8044B1A6094
:1010200001F0DAB810E000E000ED00E03F19010047
:1010300070B51C26044632460021383001F0A1FA72
:101040004FF400753246002104F1540001F099FA82
:101050002A46002104F1700001F093FA2A4604F5B3
:101060001C70002101F08DFA0020B4F88034A4F83F
:1010700082342061A061A4F8700470BD2DE9F007EE
:10108000174C54F82260B6F90050B6F902A0B6F930
:101090000490B6F90680B6F90A70B6F908C0B6F938
:1010A0000C60C56100244FF40025C0F88C4CC0F8DA
:1010B00020A0C0F8884CC0F82490C0F8144DC0F8A7
:1010C0002880076346634560C0F8104DC0F82CC007
:1010D000A0F880344161BDE8F007FFF7A9BF00BF69
:1010E000102600082DE9F007B0F88094B0F870845D
:1010F00009F1FF3708F580720024012F1FFA82FCE6
:10110000254610DD0123C3EB0C065FFA86FA00EBDF
:101110004A020133B2F97060B2F970A29BB2BB42CD
:1011200035445444EFDB002949D0C9EB0C011FFAC8
:1011300081F909F1020700EB48065FFA87FC0CF120
:101140003802B6F97070B6F970A230F912C009F120
:10115000010684EAE471A1EBE47185EAE579A9EB83
:10116000E5792F44A24408F1FF08CCEB0707494476
:10117000CCEB0A0AF2B25FFA88F38AEAEA7CACEBBB
:10118000EA7C87EAE778A8EBE77801EB810900EBD6
:10119000420600EB43034FEA9901C4448C45B6F87C
:1011A0007090B6F87022B3F87060B3F8703210D94E
:1011B000B0F88264721C54463D46A0F88224002D8B
:1011C000ACBF02200020002CA8BF0130BDE8F00712
:1011D000704705FA89F704FA82FA36B21AB2C6EBFA
:1011E0000708C2EB0A0C88EAE879A9EBE8798CEAEF
:1011F000EC73A3EBEC734B448B42E0D9B0F8824420
:10120000611E45466446A0F88214D8E710B417E082
:10121000D0F8881C4268836800EB410C0133BCF8AD
:10122000884483600FFA84FC0131ACEB2224C1F3C3
:1012300009012244B3F5805FC0F8881C42600BD2DC
:10124000D0F88C2CD0F8883CD11AC1F30904002CBA
:10125000DED15DF8044B7047002401228460C46035
:1012600002705DF8044B704770B41CE0D0F8885CE5
:10127000061D00EB450C96E81600BCF888341EB23B
:10128000A6EB212C013201350CFB0CF3C5F309054B
:10129000614404EB2314B2F5805FC0F8885C4160C0
:1012A000C46082600AD2D0F88C2CD0F8883CD11A65
:1012B000C1F30904002CD9D170BC70470021B4F5EA
:1012C000F03F8160C160EED302260670F4E700BFF4
:1012D0002DE9F04F804683B00BE0BCF1050F00F024
:1012E0005F81BCF1020F00F04A81BCF1030F00F0F6
:1012F000FD80D8F88C2CD8F8883CD01AC0F30901AE
:10130000002900F05F81D8F81440D8F81010D8F800
:10131000886C019421444FEA116B0BF1400208EBF9
:101320004604C44BD8F83C700097D0B2B4F8887427
:1013300033F9102033F91BB0D8F80430D8F820A0C6
:10134000D8F85850D8F81C90D8F824C038B2A0EB80
:1013500023270BFB07F05442031207FB04F200980B
:10136000C8F83830121205FB0AF409FB024B00FBE7
:101370000AF4D8F85C00C8F8542009FB034A00FBC3
:101380000CB9D8F82840D8F8600000FB049BD8F8C6
:101390004040D8F82C00D8F8689004FB0CACD8F882
:1013A000644004FB00BBD8F82800D8F8444004FB94
:1013B00000CAD8F80400D8F830C00136C6F30904D2
:1013C0000744D8F82C60D8F84800C8F8047000FB2F
:1013D00006AAD8F83470D8F86C60C8F8884C0CFBB2
:1013E00009BBD8F86440C8F8684006FB07B6D8F8CF
:1013F0004CB0C8F86C90D8F85090C8F84C000BFB73
:101400000CA409FB074A002E98F800C0D8F8440045
:10141000C8F85820ACBF01224FF0FF32BAF1000FDC
:10142000C8F850B0C8F84800ACBF4FF0010B4FF0FF
:10143000FF3BD8F81800C8F83C30BCF1020FD8F8D0
:101440006030D8F85C70B8F87094C8F8643014BF95
:1014500002FB0AF2CAEB060200EB400318BF0BFBCB
:101460001622D8F84040C8F86070C8F85C501A449A
:10147000009D019FC8F84440C8F8405008EB49045B
:10148000951001EBC5014FEA2A23361207EBE20261
:10149000C8F81010C8F81850C8F81420A4F8703014
:1014A000A4F87062B8F882A409F101000AF1FF35CE
:1014B000C4B2A9B2A8F87044A8F8821400297FF435
:1014C00014AFB8F880B4A8F882B4BCF1030F7FF46D
:1014D00004AFD8F8144D08EB040A04F1010B0BF02B
:1014E0007F0304268AF8906CC8F8143DB8F870742D
:1014F000B8F8805407F580711FFA81F94FEA450C5E
:10150000002D00F09480002003460646C0EB09023F
:10151000D0B208EB400A9D42BAF97040BAF9707235
:1015200003F1010B94BF01214FF0FF311FFA8BF340
:1015300094BF4FF0FF32012204FB0166634502FBBA
:1015400007661846E2DBD8F87C44D8F87474B442D5
:10155000B8BFC8F87C64002EBCBF0024C8F87C4427
:10156000B74207DDD8F878148F4203DDD8F87C3411
:101570009F423DD0C8F87874C8F87464B9E6404614
:10158000FFF7B0FD48B9B8F884E40EF1010C1FFA7A
:101590008CF3202BA8F8843417D098F800C0A4E668
:1015A00001214046FFF79EFDD8F8141D08EB01020B
:1015B0004D1C82F8900C05F07F0098F800C0C8F828
:1015C000140D92E603B0BDE8F08FA3F58467D8F858
:1015D000106DC8F87C044FF00309A8F88404C8F81B
:1015E000146D88F80090C8F87874C8F874747DE7B2
:1015F000A9EB55095FFA89FC08EB4C0ABAF970208F
:10160000002AB7DABAF970020028B3DDB8F884B45A
:101610000BF10104A1B20429A8F8841405F1FF35E7
:1016200004BF052188F80010A8F88254A2E7664696
:1016300089E700BF08000020002310B4102480F8C0
:101640000C41A0F8101180F812210370A0F80E319F
:10165000A0F80A31C0F814315DF8044B704700BFA0
:1016600090F80C3143FA01F2D30706D504290AD8C1
:10167000DFE801F0294006341400032303707047AB
:10168000022380F80C3190F80D3133B90122A0F813
:1016900006314370A0F8083102707047B0F80E119F
:1016A000B0F810C14B1C9AB29445A0F80E2102D894
:1016B000B0F80A1121BB4FF0160C102380F80CC1B2
:1016C00080F80D31704790F80DC10CF1FF32D3B2A4
:1016D000082180F80D3180F80C11D6E790F80D1133
:1016E00001F1FF3C5FFA8CF3012280F80D3180F8A4
:1016F0000C21CAE70C2180F80C1190F80D31C4E7D9
:1017000005220270704700BF2DE9F84F03780446A8
:101710000A46A3B1012B0FD1B0F80651B0F8080169
:101720006119471C4E78B8B2324304284A70A4F8B5
:1017300008010AD094004C701846BDE8F88FFFF7F6
:101740008FFF23781846BDE8F88F05F101081FFACE
:1017500088F90025B9F5827FA4F80691A4F808510C
:1017600002D04C446570E7E7744A631C04F201152B
:101770004FF0FF309A4693F802901AF8011B93F845
:1017800003809AF800A093F804C05F799E7980EAFC
:10179000010B5FFA8BF1083352F821B013F8011CEA
:1017A0008BEA102080EA0A0A5FFA8AFBAB4252F801
:1017B0002BA08AEA102080EA09095FFA89FB52F817
:1017C0002BA08AEA102080EA08085FFA88F952F80C
:1017D00029B08BEA102A8AEA0C00C0B252F820C065
:1017E0008CEA1A2888EA0707F8B252F8207087EACC
:1017F000182989EA0606F0B252F8207087EA1926FD
:1018000086EA0101C8B252F8207087EA1620B1D1E9
:1018100094F8026194F8015194F8043194F803218A
:101820004FEA064B4BEA056A4AEA0301C74341EA1D
:101830000220B84207D004232370B4F80A114F1CC9
:10184000A4F80A7178E794F8126102252570002E39
:1018500071D0D4F81411002304EB030903F1010A39
:1018600099F801B0364A37488BEA116B89F801B014
:1018700004EB0A0902FB01FB99F80110804684463B
:101880000646054603F1020A584481EA106BA24459
:1018900089F801B09AF801B002FB00F94746C84444
:1018A00003F103098BEA186BA1448AF801B099F897
:1018B00001A002FB08F8C44403F1040B8AEA1C6887
:1018C000A34489F801809BF8019002FB0CFC384688
:1018D000394603F1050A674489EA1768A2448BF880
:1018E00001809AF801B002FB07F73E4403F10609B4
:1018F0008BEA1667A1448AF8017002FB06F699F894
:101900000170354403F1070A87EA1566A24489F895
:10191000016002FB05F59AF801C02844083302FB78
:1019200000F2B3F5807F8CEA106011448AF8010060
:1019300092D1C4F8141102237FE700BF7426000877
:101940000D6619005FF36E3CF0B41549154E164B49
:10195000164A174C174D4FF0FF300427C1F880008E
:10196000C1F88400C1F88001C1F8840137601968AA
:1019700041F001061E601068044014601F6827F0E3
:10198000847C2CF4803119601E6826F48020186055
:101990001468002324F4FE0717602B60F0BC704726
:1019A00000E100E010E000E000100240D010024032
:1019B0000000FFF8A011024008B54368026882F3F6
:1019C0000888984708BD00BF704700BF0248034918
:1019D000034A00F091BD00BF98180020C919000803
:1019E000000000203D4A3E4BD2F8881041F47000C0
:1019F000C2F888001A6842F001011960586800F4C2
:101A00007F025A60196821F0847020F480321A60D5
:101A1000196821F4802018605A6822F4FE01596088
:101A2000D86A20F00F02DA62196B82B021F0F02040
:101A300020F07301002219639A60009201921868E5
:101A400040F48031196003E00098B0F5A06F0AD02F
:101A5000234B1A6802F40030019000994B1C00934C
:101A6000019A002AF0D01E490B6813F4003218BF07
:101A7000012201920198012805D018494FF0006316
:101A80008B6002B07047174A154B122111605868DD
:101A900058605A685A60596841F4806058605A68C2
:101AA00022F47C115960586840F4E8125A601968B1
:101AB00041F0807018600A4B1A689201FBD5596892
:101AC00021F0030058605A6842F002015960044B4B
:101AD000586800F00C02082AF9D1CEE700ED00E0CA
:101AE0000010024000200240F0B445680F788C6876
:101AF0004E684A780C4B25F4807C4CEA07254560FB
:101B0000876826433B4046EA030444EA4202826077
:101B1000097BC56A4F1EFEB225F4700343EA0654E2
:101B2000C462F0BC704700BFFDF7F1FF836819B9CC
:101B300023F001018160704743F001028260704729
:101B4000836843F004018160704700BF836843F0FD
:101B500008018160704700BF092970B421D9A1F143
:101B60000A0505EB450C0724C56804FA0CF603FAD0
:101B70000CFC25EA060343EA0C04062AC4601FD9BC
:101B80000C2A2DD90D3A02EB8205C46A1F2606FAEB
:101B900005FCA94024EA0C0341EA0302C26270BCBE
:101BA000704701EB41040726056906FA04FC03FAB5
:101BB00004F425EA0C0343EA0406062A0661DFD88A
:101BC000561E06EB860C446B1F2303FA0CF524EA21
:101BD000050201FA0CF141EA0206466370BC704747
:101BE000D51F05EB8506046B4FF01F0C0CFA06F3AE
:101BF000B14024EA030241EA0205056370BC704764
:101C0000836819B923F480718160704743F480724E
:101C1000826070478068C0F3800070478068C0F3BE
:101C2000C00070472DE9F00FD1F808A0D1F820B01E
:101C3000D1F81090D1F81480D1F818C0CF694E6A4D
:101C400005688C6A8A890B6849684BEA0A0B4BEA7B
:101C5000090A4AEA080949EA0C0848EA070C4CEA6A
:101C6000060725F4FF463C4326F0700544EA0507C5
:101C700007604260BDE8F00F8360C160704700BF3D
:101C800031B902684FF6FE7302EA03010160704742
:101C9000026842F001030360704700BF044B1A69F9
:101CA000120603D50349044859605860704700BFC5
:101CB0000020024023016745AB89EFCD084BDA686D
:101CC000D1070BD4D868C20601D502207047D96865
:101CD00011F0040F0CBF042003207047012070474F
:101CE0000020024038B50446FFF7E8FF012872D112
:101CF000002C72D0FFF7E2FF013C012804F007033B
:101D000069D1002C69D0B3B3012B2DD0022B25D083
:101D1000032B1DD0042B15D0052B0DD0062B05D081
:101D2000FFF7CCFF012804F1FF3454D1FFF7C6FFC1
:101D3000012804F1FF344ED1FFF7C0FF012804F160
:101D4000FF3448D1FFF7BAFF012804F1FF3442D134
:101D5000FFF7B4FF012804F1FF343CD1FFF7AEFFD9
:101D6000012804F1FF3436D1FFF7A8FF012804F160
:101D7000FF3430D18CB3FFF7A1FF013C0128254689
:101D800029D1FFF79BFF012804F1FF3423D1FFF78E
:101D900095FF0128A5F102041DD1FFF78FFF01284F
:101DA000A5F1030417D1FFF789FF0128A5F1040469
:101DB00011D1FFF783FF0128A5F105040BD1FFF72F
:101DC0007DFF0128A5F1060405D1FFF777FF012863
:101DD000A5F10704CED004B138BD052038BD00BF41
:101DE00038B505464FF43020FFF77CFF042800D0BB
:101DF00038BD094C236943F0020020616561216907
:101E000041F0400222614FF43020FFF76BFF25695B
:101E100025F00203236138BD0020024070B582B076
:101E2000002305464FF430200C460193FFF75AFF7C
:101E3000042801D002B070BD114E3269A1B242F047
:101E4000010030614FF430202980FFF74BFF042858
:101E500005D0356925F00103336102B070BDAA1CBD
:101E6000019201994FEA144CA1F800C04FF43020C0
:101E7000FFF738FF346924F001053561DAE700BF68
:101E80000020024000232DE9F00F1A460C6823E0E1
:101E90000132012707FA02FC0CEA040BE34503F1C7
:101EA000020300F09E800126571C06FA07F909EA92
:101EB000040CCC4503F102066BD00126971C06FAF0
:101EC00007FB0BEA040CDC4503F1040632D00332B5
:101ED000102A03F1060359D0012505FA02F707EA93
:101EE0000406BE42D4D191F804A00AF1FF35EFB246
:101EF000012F4FF0030505FA03FB40F298806FEACB
:101F00000B07066891F807903740076006680AFAE1
:101F100003FA4AEA06050560C768032606FA03F8CD
:101F200027EA0805C560C76809FA03F646EA070507
:101F3000C560ADE70D7905F1FF3A5FFA8AF8B8F1AF
:101F4000010F40F2E5800327B7406FEA0708D0F899
:101F500000C091F807A008EA0C08C0F80080D0F88B
:101F60000090B54045EA09070760C5680327B740F8
:101F700025EA0705C560C7680AFA06F6033246EA8D
:101F80000705102AC56003F10603A5D1BDE8F00FCF
:101F900070470D7905F1FF3B5FFA8BFABAF1010F3B
:101FA00040F28B800327B7406FEA0708D0F800C0E3
:101FB00091F807A008EA0C08C0F80080D0F800905B
:101FC000B54045EA09070760C5680327B74025EA19
:101FD0000705C560C7680AFA06F646EA0705C56040
:101FE0006BE791F804A00AF1FF36F5B2012D3FD955
:101FF0004FF0030909FA03F86FEA0807066891F839
:1020000007B03740076006680AFA03FA4AEA06058D
:102010000560C768032606FA03F827EA0805C560C5
:10202000C7680BFA03F646EA0705C5603BE7D0F838
:1020300008904D7991F806806FEA0B0707EA090CC2
:10204000C0F808C0D0F808B09D4045EA0B09C0F8B8
:1020500008908588ADB225EA06068680858808FA4C
:1020600002F848EA050C1FFA8CFBA0F804B048E718
:102070000326D0F8089091F8068006FA03F5EF439E
:1020800007EA090C4E79C0F808C0D0F8089006FAA3
:1020900003F545EA090CC0F808C08688B5B225EA00
:1020A0000B0BA0F804B0858808FA02F848EA050985
:1020B0001FFA89FCA0F804C0A0E74FF00309D0F88C
:1020C00008B091F805A009FA06F86FEA080808EACE
:1020D0000B0B91F80690C0F808B0D0F808B00AFAD7
:1020E00006FA4AEA0B0BC0F808B0B0F804A01FFAD1
:1020F0008AFB2BEA0C0CA0F804C0B0F804A009FA83
:1021000007F747EA0A091FFA89FBA0F804B04DE770
:102110004FF00309D0F808B091F805A009FA06F8C5
:102120006FEA080808EA0B0B91F80690C0F808B0AF
:10213000D0F808B00AFA06FA4AEA0B0BC0F808B061
:10214000B0F804A01FFA8AFB2BEA0C0CA0F804C01C
:10215000B0F804A009FA07F747EA0A091FFA89FB51
:10216000A0F804B0F3E600BF038A19420CBF0020B8
:10217000012070470AB9018570478161704700BF2F
:10218000CB0800EB830001F0070110B44FEA810C8B
:10219000046A0F2303FA0CF124EA01030362046AC0
:1021A00002FA0CF242EA040101625DF8044B704746
:1021B000014B1860704700BF00300040014B586071
:1021C000704700BF00300040024B4AF6AA221A6056
:1021D000704700BF00300040024B4CF6CC421A6002
:1021E000704700BF0030004040F0BF60024B40F439
:1021F0000031D960704700BF00ED00E0C378F0B453
:102200006BB90078194A410901F1200400F01F055B
:10221000012606FA05F742F82470F0BC7047144B0B
:1022200090F801C0DA68857806781049D443C4F381
:1022300002230F2727FA03F2C3F104040CFA04F374
:10224000154045EA030706F1604C0CF561443E0178
:10225000F2B284F800230378012003F01F055F0920
:1022600000FA05F641F82760F0BC704700E100E095
:1022700000ED00E021F0604121F07F02014B1043AE
:102280009860704700ED00E0044B5A6822F440412A
:1022900059605A6810435860704700BF00100240F0
:1022A000054B5A6919B922EA00005861704740EAA3
:1022B00002015961704700BF00100240054B9A6946
:1022C00019B922EA00009861704740EA0201996159
:1022D000704700BF00100240054BDA6919B922EAC5
:1022E0000000D861704740EA0201D961704700BF21
:1022F000001002402DE9F0030D88B1F80E90B1F8FE
:102300000680B1F808C04F8902888E898C880B8AB4
:10231000498849EA050949EA080545EA0C0848EAF6
:1023200007073E4302F4415C4CEA060295B2058081
:10233000878827F470664FEA06494FEA194848EA49
:10234000040484800382038823F0040215042F0C04
:1023500039430180868B26F400644FEA044C4FEA2F
:102360001C49A0F81C90BDE8F0037047038839B9F8
:1023700023F040010A044FEA124CA0F800C0704755
:102380009BB243F040010180704700BF0388B0F169
:10239000804F70B49BB233D0284A904230D002F5BF
:1023A0008064A0422CD004F58065A84228D005F5B1
:1023B000A836B04224D0224A90422AD002F5806545
:1023C000A84235D005F5084C604531D00E894D68DE
:1023D0000C8823F440730CF5244C9AB242EA0603AD
:1023E00060450380C56204851CD0164EB04219D0EA
:1023F00006F58065A84215D00124848270BC704720
:102400000F4AB1F802C023F07003904243EA0C0374
:10241000D4D103800C884968C16204850124848278
:1024200070BC7047897A01860124848270BC704731
:102430004E680A880380C6620285D6E70004004021
:102440000010004000440140038839B923F0010125
:102450000A044FEA124CA0F800C070479BB243F048
:1024600001010180704700BF83891FFA83FC1AB9FC
:102470002CEA01018181704741EA0C028281704798
:10248000038A828911EA03001FFA82FC04D011EA50
:102490000C0F0CBF00200120704700BFC9438AB257
:1024A00002827047002100F004B80D4B5B58435086
:1024B00004310C480C4B42189A42FFF4F6AF0B4A19
:1024C00000F003B8002342F8043B094B9A42FFF4A2
:1024D000F9AFFFF787FA00F025F8FEF79BF8704791
:1024E000A02A000800000020100200201002002096
:1024F000A0180020FFF7FEBF03460846194600F06B
:1025000001B8000070B5064C06460D4613462CB1C6
:1025100031462A460220AFF3008070BD204670BDD0
:102520000000000070B50E4B0E4DED1AAD100024EA
:102530001E46AC4204D056F8242090470134F8E7F8
:1025400000F098FA084D094BED1AAD1000241E4614
:10255000AC4204D056F8242090470134F8E770BD0F
:102560000000000000000000982A00088C2A0008E3
:1025700010B50023934203D0CC5CC4540133F9E777
:1025800010BD02440346934202D003F8011BFAE750
:1025900070470000000400482000400000000000D8
:1025A00000140048800040000000000000040048C3
:1025B00008001000000000000000004804000000B7
:1025C0000000004800100000000800480020000043
:1025D000ECFF2800C9FF4000FF004000C9FF2800B1
:1025E000EBFFCDFF7B00FF007B00CDFFEBFF00008A
:1025F000BAFF1900B400FF00B4001900BAFF0000D0
:10260000DDFF5500CD00FF00CD005500DDFF0000CF
:10261000000000000000000000000000D0250008BD
:10262000E025000800000000F02500080000000080
:10263000002600080000000000000000000000006C
:102640005426000800000000000000000000000008
:10265000642600082D009500E300FF00E3009500CC
:102660002D00000000006200B400EC00FF00EC0050
:10267000B400620000000000963007772C610EEE77
:10268000BA51099919C46D078FF46A7035A563E9C9
:10269000A395649E3288DB0EA4B8DC791EE9D5E0F0
:1026A00088D9D2972B4CB609BD7CB17E072DB8E7EF
:1026B000911DBF906410B71DF220B06A4871B9F344
:1026C000DE41BE847DD4DA1AEBE4DD6D51B5D4F47D
:1026D000C785D38356986C13C0A86B647AF962FDE2
:1026E000ECC9658A4F5C0114D96C0663633D0FFA2F
:1026F000F50D088DC8206E3B5E10694CE44160D535
:10270000727167A2D1E4033C47D4044BFD850DD21E
:102710006BB50AA5FAA8B5356C98B242D6C9BBDB31
:1027200040F9BCACE36CD832755CDF45CF0DD6DC2C
:10273000593DD1ABAC30D9263A00DE518051D7C8D3
:102740001661D0BFB5F4B42123C4B3569995BACF5E
:102750000FA5BDB89EB802280888055FB2D90CC67F
:1027600024E90BB1877C6F2F114C6858AB1D61C1F8
:102770003D2D66B69041DC760671DB01BC20D29817
:102780002A10D5EF8985B1711FB5B606A5E4BF9FA4
:1027900033D4B8E8A2C9077834F9000F8EA8099697
:1027A00018980EE1BB0D6A7F2D3D6D08976C649102
:1027B000015C63E6F4516B6B62616C1CD83065851B
:1027C0004E0062F2ED95066C7BA5011BC1F40882F8
:1027D00057C40FF5C6D9B06550E9B712EAB8BE8B39
:1027E0007C88B9FCDF1DDD62492DDA15F37CD38CC2
:1027F000654CD4FB5861B24DCE51B53A7400BCA3C0
:10280000E230BBD441A5DF4AD795D83D6DC4D1A4F1
:10281000FBF4D6D36AE96943FCD96E34468867ADC8
:10282000D0B860DA732D0444E51D03335F4C0AAA67
:10283000C97C0DDD3C710550AA41022710100BBE6A
:1028400086200CC925B56857B3856F2009D466B9B1
:102850009FE461CE0EF9DE5E98C9D9292298D0B0E6
:10286000B4A8D7C7173DB359810DB42E3B5CBDB793
:10287000AD6CBAC02083B8EDB6B3BF9A0CE2B60314
:102880009AD2B1743947D5EAAF77D29D1526DB04C9
:102890008316DC73120B63E3843B64943E6A6D0D14
:1028A000A85A6A7A0BCF0EE49DFF099327AE000A5F
:1028B000B19E077D44930FF0D2A3088768F2011EF2
:1028C000FEC206695D5762F7CB67658071366C1989
:1028D000E7066B6E761BD4FEE02BD3895A7ADA10AA
:1028E000CC4ADD676FDFB9F9F9EFBE8E43BEB7178B
:1028F000D58EB060E8A3D6D67E93D1A1C4C2D83815
:1029000052F2DF4FF167BBD16757BCA6DD06B53F7A
:102910004B36B248DA2B0DD84C1B0AAFF64A0336B9
:10292000607A0441C3EF60DF55DF67A8EF8E6E3138
:1029300079BE69468CB361CB1A8366BCA0D26F2581
:1029400036E2685295770CCC03470BBBB9160222CE
:102950002F260555BE3BBAC5280BBDB2925AB42BE3
:10296000046AB35CA7FFD7C231CFD0B58B9ED92CF8
:102970001DAEDE5BB0C2649B26F263EC9CA36A755D
:102980000A936D02A906099C3F360EEB8567077214
:1029900013570005824ABF95147AB8E2AE2BB17B7B
:1029A000381BB60C9B8ED2920DBED5E5B7EFDC7C02
:1029B00021DFDB0BD4D2D38642E2D4F1F8B3DD6859
:1029C0006E83DA1FCD16BE815B26B9F6E177B06F54
:1029D0007747B718E65A0888706A0FFFCA3B066641
:1029E0005C0B0111FF9E658F69AE62F8D3FF6B61CE
:1029F00045CF6C1678E20AA0EED20DD75483044E70
:102A0000C2B30339612667A7F71660D04D476949FD
:102A1000DB776E3E4A6AD1AEDC5AD6D9660BDF4010
:102A2000F03BD83753AEBCA9C59EBBDE7FCFB247C3
:102A3000E9FFB5301CF2BDBD8AC2BACA3093B353A8
:102A4000A6A3B4240536D0BA9306D7CD2957DE54B1
:102A5000BF67D9232E7A66B3B84A61C4021B685D8A
:102A6000942B6F2A37BE0BB4A18E0CC31BDF055A03
:102A70008DEF022DF8B500BFF8BC08BC9E4670472C
:102A8000F8B500BFF8BC08BC9E467047B501000809
:102A900009080008CD19000800000000000000002F
:102AA00000000000401F000000003200640096009B
:102AB000C800FA002C015E018F01C001F101220261
:102AC00052028202B102E1020F033D036B0398033D
:102AD000C503F1031C04470471049B04C304EB0405
:102AE000130539055F058405A805CB05ED050E0620
:102AF0002F064E066C068A06A606C206DC06F506FA
:102B00000E0725073B0750076407760788079807D5
:102B1000A707B507C207CE07D807E107E907F007FF
:102B2000F607FA07FD07FF070008FF07FD07FA078A
:102B3000F607F007E907E107D807CE07C207B50790
:102B4000A707980788077607640750073B072507FC
:102B50000E07F506DC06C206A6068A066C064E06B9
:102B60002F060E06ED05CB05A80584055F05390582
:102B70001305EB04C3049B04710447041C04F10314
:102B8000C50398036B033D030F03E102B102820208
:102B900052022202F101C0018F015E012C01FA00F4
:102BA000C8009600640032000000CEFF9CFF6AFF60
:102BB00038FF06FFD4FEA2FE71FE40FE0FFEDEFDD2
:102BC000AEFD7EFD4FFD1FFDF1FCC3FC95FC68FCD6
:102BD0003BFC0FFCE4FBB9FB8FFB65FB3DFB15FBEE
:102BE000EDFAC7FAA1FA7CFA58FA35FA13FAF2F9B3
:102BF000D1F9B2F994F976F95AF93EF924F90BF9B9
:102C0000F2F8DBF8C5F8B0F89CF88AF878F868F8BC
:102C100059F84BF83EF832F828F81FF817F810F872
:102C20000AF806F803F801F800F801F803F806F8C6
:102C30000AF810F817F81FF828F832F83EF84BF8A1
:102C400059F868F878F88AF89CF8B0F8C5F8DBF815
:102C5000F2F80BF924F93EF95AF976F994F9B2F938
:102C6000D1F9F2F913FA35FA58FA7CFAA1FAC7FA4F
:102C7000EDFA15FB3DFB65FB8FFBB9FBE4FB0FFC9D
:102C80003BFC68FC95FCC3FCF1FC1FFD4FFD7EFD89
:102C9000AEFDDEFD0FFE40FE71FEA2FED4FE06FF7D
:102CA00038FF6AFF9CFFCEFF00000000000000001C
:04000005080024A526
:00000001FF
